:10000000000002202D1000005510000057100000C5
:10001000591000005B1000005D100000000000009F
:100020000000000000000000000000005F10000061
:100030006110000000000000631000006510000067
:100040006710000067100000DD130000B90E00000B
:10005000AD0E000067100000E11400006710000002
:1000600067100000671000005106000067100000D4
:1000700067100000671000006710000067100000A4
:10008000671000008D150000671000006710000069
:100090006710000067100000671000006710000084
:1000A0006710000067100000671000006710000074
:1000B0006710000067100000000000000000000052
:1000C0006710000067100000671000006710000054
:1000D0006710000067100000671000006710000044
:1000E0006710000000000000000000000000000099
:1000F0000000000067100000000000006710000012
:1001000000000000000000000000000000000000EF
:1001100000000000000000000000000000000000DF
:1001200000000000000000000000000000000000CF
:1001300000000000000000000000000000000000BF
:1001400000000000000000000000000000000000AF
:10015000000000000000000000000000000000009F
:10016000000000000000000000000000000000008F
:10017000000000000000000000000000000000007F
:10018000000000000000000000000000000000006F
:10019000000000000000000000000000000000005F
:1001A000000000000000000000000000000000004F
:1001B000000000000000000000000000000000003F
:1001C000000000000000000000000000000000002F
:1001D000000000000000000000000000000000001F
:1001E000000000000000000000000000000000000F
:1001F00000000000000000000000000000000000FF
:10020000044B05481B1A062B02D9044B03B11847AF
:10021000704700BFCB000020C80000200000000095
:1002200005490648091A891001EBD171491002D01D
:10023000034B03B118477047C8000020C8000020D6
:100240000000000010B5064C237843B9FFF7D8FF33
:10025000044B13B10448AFF300800123237010BD99
:10026000C800002000000000342F000008B5084B33
:100270001BB108490848AFF300800848036813B968
:10028000BDE80840CCE7064B002BF9D09847F7E7CC
:1002900000000000CC000020342F0000C40000202B
:1002A00000000000154B002B08BF134B9D46A3F523
:1002B000803A00218B460F461348144A121A01F067
:1002C00071FA0F4B002B00D098470E4B002B00D03B
:1002D00098470020002104000D000D48002802D09E
:1002E0000C48AFF3008001F037FA2000290001F03C
:1002F00063F901F00BFA00BF0000080000000220C3
:100300000000000000000000C8000020680300207A
:100310000000000000000000074B08491A78D2B224
:100320000A701A78013AD2B21A701A78C82A84BFB1
:1003300000221A70704700BF040000200500002052
:10034000074B08491A78D2B20A701A780132D2B231
:100350001A701A78042A84BF04221A70704700BFEA
:10036000040000200500002008B50B4800F014F937
:100370000021052001F052F900210B2001F04EF977
:1003800003220649052001F03FF8032204490B200F
:10039000BDE8084001F038B8E4000020190300006F
:1003A0004103000010B5054C204600F07DF82046C2
:1003B000034A0449BDE8104001F076B9E40000208A
:1003C00000000020CD04000010B50A4B0A4A18783E
:1003D000117888421C4605D0127808480023022173
:1003E00000F020F82278054801230221BDE81040E2
:1003F00000F018B80400002005000020E4000020F0
:1004000000F11903C9B280F8241080F8251080F893
:10041000261080F8271080F8281005309842F2D175
:1004200070470000002910B538DB002A36DBB0F930
:100430000C408C4232DDB0F90E4094422EDD847EB9
:10044000022C09D0032C10D0012C13D10489013CBB
:10045000A41A0A4621B20DE00489013C611A4489BC
:10046000013CA21A09B212B204E04489013C641AA8
:10047000114622B202EB82021144C9B2084A545C0E
:10048000084A525C013AD2B29100013C0A44E4B2FB
:100490001044204403B1012380F8243010BD00BF74
:1004A000290000200B00002010B50522044611464B
:1004B00000F056FA2046044B40F8243B1922002154
:1004C00001F070F9204610BD34270000704700008D
:1004D0002DE9F8431D4C1E4D2378DFF87890064631
:1004E0000021E85C01F0C4F84FF0000819F808009A
:1004F000184F012108F1010801F0BAF8B8F1050F11
:10050000F4D123780133DBB2042B237082BF0F4B6D
:1005100000221A704FF00008237803EB8303334462
:10052000434493F8243023B1002117F8080001F068
:100530009FF808F10108B8F1050FEDD123780121EA
:10054000E85CBDE8F84301F093B800BF2801002043
:1005500006000020240000200D4B00220121042071
:10056000C3F80425D960C3F810054FF47A70C3F8B6
:100570000825C3F84005C3F844254FF48032C3F87A
:100580000423044A4FF4806010601960704700BF74
:1005900000A0004000E100E070B51B4B1B4C186050
:1005A0000546661D14F8010F012101F037F80121FD
:1005B000207801F05DF8B442F4D1154C661D14F8B2
:1005C000010F012101F02AF80021207801F050F8F4
:1005D000A642F4D12B4605F11901002283F824200C
:1005E00083F8252083F8262083F8272083F8282005
:1005F00005339942F2D1074B002228461A70FFF7C3
:10060000ABFF012070BD00BF2401002023000020AB
:10061000050000202801002010B50B4CD4F8403113
:1006200083B1D4F80433DB030CD50023C4F8403184
:10063000064B1868FFF74CFFD4F8403503F57A7382
:10064000C4F8403510BD00BF00A0004024010020C8
:10065000FFF7E2BF2DE9F04F85B01F46BDF93830F6
:10066000BDF83CA015469A1A002AB8BF5242009223
:100670007A1A002AB8BF524201920C46009A019998
:100680008A42814605DD3A461F46134622462C46DD
:100690001546BC4205DD2A461D46134622463C4609
:1006A00017465A1B002AC4EB0708B8BF52421FFA6C
:1006B00088F8039202260FFA88F292FBF6F64FF6BC
:1006C000FF729D42B8BF0122B6B20292BC421FDC4B
:1006D000019A009B9342D9F80030C8BF2246D3F854
:1006E00010B0C8BF29465346DCBF2A4621464846BB
:1006F000D847039BF61AB3B29EB2320405D5029ACC
:1007000008EB030615442DB2B6B2013424B2DDE77E
:1007100005B0BDE8F08F10B40468A468A4465DF885
:10072000044B604730B40468BDF808500295246B50
:10073000A44630BC604730B40468BDF80850029548
:10074000646BA44630BC604770B40468BDF90C50BB
:10075000BDF8106004960395A46BA44670BC604776
:1007600070472DE9F3411C460368BDF82080DB6823
:1007700005461646013C34440F4624B298472B6880
:10078000CDF8048000941C6A28463B463246394620
:10079000A0472B685B6A284602B0BDE8F0411847C5
:1007A0002DE9F3411D460368BDF82080DB6804464F
:1007B00017460E4698478DE8800122686B1E334429
:1007C000156A20461BB23A463146A84723685B6A41
:1007D000204602B0BDE8F04118472DE9F3471E4618
:1007E0000368BDF92880DB68BDF82C900C460546EF
:1007F000174698472644B4422A680BDACDF8009091
:10080000D2F818A0214643463A4628460134D0473C
:1008100024B2F0E7536A284602B0BDE8F047184713
:1008200013B5B0F90E200468019100920022B0F9CE
:100830000C30A46B1146A04702B010BD2DE9F74360
:100840009942904607460E461C46BDF92850BDF811
:100850002C9002680BD1A845C2BF4346A8461D464E
:100860006B1CCDF82890C8EB0303146B0CE0A84573
:1008700013D19942C4BF0B462646CDF82890C8BF75
:100880001C46631C546B9B1B1BB2424631463846C8
:10089000A44603B0BDE8F0436047D36898473B687F
:1008A0008DE8200238461D6A424623463146A84755
:1008B0003B685B6A384603B0BDE8F04318472DE952
:1008C000F3471E460368BDF82C80DB68BDF928900D
:1008D00004460D46174698472368CDF80080D3F8A4
:1008E0001CA03A46334629462046D0472368CDF817
:1008F000008009F1FF323A44D3F81CA02946334660
:10090000204612B2D0472368CDF80080D3F818A053
:100910003A464B4629462046D0472368CDF800800A
:10092000711E294420469D693A464B4609B2A847A4
:1009300023685B6A204602B0BDE8F047184770475D
:1009400001F00301012981760389428904D003293A
:1009500002D08381C28170478281C38170470000C9
:1009600030B5018100240A4D42818181C2814FF658
:10097000FF710122446005608476048244824276DD
:100980000276C1828182C2760477046230BD00BFE4
:10099000842700002DE9F04F91B09046026A039140
:1009A0001E46BDF8683002930446BDF86C909DF871
:1009B00070709DF87450002A40F0B280B0F90C308D
:1009C0008B4240F33F81B0F90E30434540F33A810A
:1009D000062313FB0713002B40F3348108EBC503F8
:1009E000002B40F32F81037F1BB9AF2E84BF01364C
:1009F000F6B223682046DB68984705230993002355
:100A000006933BB20C939DF918309049052212FBD6
:100A100006324FF0000A8A5C0592BAB20792BDF81E
:100A20000C2004920499079A03FB021292B211FA65
:100A300083F308921BB208220A920B93059BDA07F4
:100A400011D5012F4FFA8AF207D1012D05D1236864
:100A50004244D3F810B0029B13E00299236801913D
:100A600002FB058217E0029B4B451DD0012F4FFA78
:100A70008AF20BD1012D09D123684244D3F810B07A
:100A80004B4612B20B992046D8470DE02368CDF8AB
:100A9000049002FB05820095D3F814B0BDF9201034
:100AA0000C9B12B22046D847059B5B0805930A9B16
:100AB000013B0AF1010A13F0FF035FFA8AFA0A9375
:100AC000BCD1069B0133DBB20693099B013B13F0BB
:100AD000FF03099397D1029B4B4500F0AC80012F97
:100AE00023680CD1012D0AD10499CDF8009005316D
:100AF0009D694246082309B22046A8479BE0079A11
:100B0000CDF8049002EB8201049AED000A441146EC
:100B100000955D6942463B4609B22046A8478AE0F7
:100B2000137A516812680D92F61AF6B201EBC603F9
:100B300031F8362004929A780792DA780A92012FD7
:100B40005A7908929E7901D8012D07D99DF9203054
:100B50009BB2069373B29BB2059302E00023059308
:100B6000069323682046DB6898471FFA88F34FF006
:100B70000009099343FA86F3CB46CA460F930A9BB2
:100B80005FFA89F29A4256D2059B09994B4413FBAE
:100B900005F30B440F999BB28A180C9300265B4611
:100BA0000E92079A96423FD25A1CD2B25B070B9222
:100BB00007D1049B04990D9A01339BB212F801A04E
:100BC00004931AF0800F27D0012F11D1012D0FD1DE
:100BD0009DF82020039B43FA82F12368BDF9382059
:100BE000D3F81080029B314409B22046C04713E07D
:100BF000BDF81830029A019206FA83F1039B009522
:100C000011FB07F119442368BDF93020D3F8148093
:100C100009B23B462046C0474FEA4A0A01365FFA0E
:100C20008AFAF6B20B9BBCE7079B9B445FFA8BFBEF
:100C300009F10109A3E723685B6A204611B0BDE80A
:100C4000F04F184711B0BDE8F08F00BFCC2700006F
:100C5000F0B5026A85B004460B46002A2FD10A2956
:100C600005D10282438A427E03EBC20330E00D29A4
:100C70006AD0C17E457E007E69B1B4F9106006215C
:100C800011FB0061B4F90C60B142C1BF2282628ADB
:100C900002EBC50262820290E08A0190A08AB4F958
:100CA00012200090B4F9101003952046FFF772FE51
:100CB000237E228A03EB430302EB430343E00A292A
:100CC00008D100230382417E127B438A01FB023359
:100CD000638239E00D2937D0157AA94234D3917A4D
:100CE000994231D351685D1BEDB201EBC505A9787E
:100CF00021B3E87810B3E77E667E207E8FB195F948
:100D000005703944B4F9107000FB0171B4F90C702E
:100D1000B94206DD00212182127B618A06FB0212A4
:100D200062820290E08A0190A08A0090B4F91220B9
:100D3000B4F9101003962046FFF72CFE2979227E85
:100D4000238A01FB02332382012005B0F0BD2DE987
:100D5000F84380460D46174601EB02090C464C4508
:100D6000A4EB050609D0D8F8003014F8011B1B6865
:100D7000404698470028F2D100E03E463046BDE8A4
:100D8000F8837047203000F039B938B5437F0D46FD
:100D90002BB100F16804204600F03EF908B10020B4
:100DA00038BD2046294600F00CF9012038BD20301E
:100DB00000F016B9203000F027B900002DE9F0410D
:100DC0001E464FF47A73002583600D4B4560044640
:100DD00040F8203B8846174600F0E8F804F1680028
:100DE00000F0E4F89DF8183063769DF81C30A37687
:100DF000C4F810806761267665772046BDE8F081EB
:100E0000D42C00004369D3F8642170B5044682B144
:100E10000022012500F12006C3F864210577304641
:100E200000F0DAF863694022C3F83465C3F8382566
:100E30001D636369D3F86821D2B10025C3F86851F6
:100E400004F16806012363772577304600F0C4F883
:100E5000D4F8B43003B19847657765693046C5F872
:100E6000446500F0CBF86369C5F8480501225A6370
:100E70006369D3F804215AB10022C3F80421227F08
:100E800032B1D3F83C05D4F8B830206603B19847A6
:100E90006369D3F8242142B10022C3F82421D3F896
:100EA000D024C3F8D02401225A6170BD0148FFF755
:100EB000A9BF00BFE80100200148FFF7A3BF00BFA2
:100EC0002C01002007B5132314228DE80C004FF0ED
:100ED0004022114604230848FFF770FF074A0848DC
:100EE0001E211F238DE80A0003231146FFF766FF2A
:100EF00003B05DF804FB00BFE801002000300040B3
:100F00002C01002038B50025057329B90B4B0C4A7C
:100F10000C48252100F0CEFB01600B4951F822203E
:100F2000027151F8233083719DF8103051F823304D
:100F300043710223C371856038BD00BF292D0000B5
:100F4000EC2C0000372D0000A02D000007B5094B48
:100F500009490A484FF080421A6000229A60022232
:100F60001A710F2300930E220D23FFF7CBFF03B05E
:100F70005DF804FBA402002000300240B002002013
:100F80002DE9F04106460D4601EB02080C464445AA
:100F9000A4EB050707D0336814F8011B1B68304623
:100FA00098470028F3D13846BDE8F08110B54022BB
:100FB0000446002100F0F6FB00232364636420460E
:100FC00010BD026C10B5531C446C03F03F039C42EF
:100FD0001CBF8154036410BD002303644364704745
:100FE000436C026C93421FBFC25C013303F03F03AA
:100FF000436414BF10464FF0FF307047036C406CE1
:10100000181A48BF40307047436C026C934214BFBB
:10101000C05C4FF0FF307047036C406C013303F04D
:101020003F031B1A58425841704700000649074ABF
:10103000074B9B1A03DD043BC858D050FBDC00F083
:1010400013F8FFF72FF90000402F000000000020E8
:10105000C8000020FEE7FEE7FEE7FEE7FEE7FEE74A
:10106000FEE7FEE7FEE7FEE73A4B1A680D2A1FD0BF
:101070001B680D2B26D0374B1B680D2B09D14FF069
:101080008043D3F80024D20703D56FF00102C3F8E0
:101090000024314AD2F8883043F47003C2F8883013
:1010A000BFF34F8FBFF36F8F2C4B2D4A1A607047E1
:1010B0004FF080420021C2F80C11C2F81011C2F8A2
:1010C0003815D5E74FF08052264BD2F80414C3F8F8
:1010D0002015D2F80814C3F82415D2F80C14C3F85C
:1010E0002815D2F81014C3F82C15D2F81414C3F82C
:1010F0003015D2F81814C3F83415D2F81C14C3F8FC
:101100004015D2F82014C3F84415D2F82414C3F8BB
:101110004815D2F82814C3F84C15D2F82C14C3F88B
:101120005015D2F83014C3F85415D2F83414C3F85B
:101130006015D2F83814C3F86415D2F83C14C3F81B
:101140006815D2F84014C3F86C15D2F84424C3F8DB
:10115000702590E73001001000ED00E04400002011
:101160000090D00300C000400120704703681322A4
:10117000DB69184770470369C3F81C15D3F81C21B5
:10118000002AFBD00022C3F81C2101207047000078
:1011900090F85C305AB2520910B4012120320F4C41
:1011A00003F01F0301FA03F344F8223003695DF8EA
:1011B000044B0422C3F8082300225960D960C3F805
:1011C00000254FF0FF32C3F80C251430C3F8142566
:1011D000C3F80825C3F81025FFF7FEBE00E100E0C4
:1011E0001430FFF70BBF1430FFF70EBF1430FFF7BA
:1011F000F7BE0000026990F85E3030B5C2F80C35D9
:1012000090F85D30C2F8143590F86130012B01BFC1
:1012100090F85F40C2F8104590F86040C2F8084569
:1012200018BF0023B1F5966FC2F86C352ED9B1F511
:10123000166F2ED9B1F5965F2ED9B1F5165F2DD95F
:10124000B1F5615F2CD9B1F5964F2BD9B1F5E14FCE
:101250002AD9B1F5164F29D9B1F5614F29D9B1F580
:10126000963F29D9B1F5E13F28D9B1F5613F28D999
:10127000344B994228D9B1F5E12F28D9B1F5612F26
:101280008CBF4FF080534FF0706322E04FF49E23E9
:101290001FE04FF41D231CE02B4B1AE02B4B18E0F2
:1012A0002B4B16E02B4B14E02B4B12E04FF41D039D
:1012B0000FE04FF46B030CE0284B0AE04FF0EB73A8
:1012C00007E04FF06C7304E04FF0806301E04FF0F3
:1012D000E863C2F8243500210423C2F80035C2F8BF
:1012E0000811C2F81C11012111609160C2F8043389
:1012F00090F85C2053B2D2B202F01F055C09A940FD
:101300006034174D002B45F8241006DA154B02F017
:101310000F02134460221A7606E003F1604303F5DE
:101320006143602283F8002390F85C3001215AB2B7
:1013300003F01F0301FA03F35209094941F822306F
:1013400030BD00BF90D0030000B013000050270054
:1013500000F03A0000A04E0000C0750000903A0175
:1013600000E100E0FCEC00E02DE9F0411E464FF406
:101370007A73002583600E4B4560044640F8143BA9
:1013800017468846FFF712FE0A4AC4F8108052F842
:10139000263084F85D309DF8183084F85C7052F87F
:1013A000233084F85E3084F861502046BDE8F08137
:1013B000342E0000A02D00000369D3F8082110B5D9
:1013C00004464AB1D3F818151430C9B2FFF7F9FD35
:1013D00023690022C3F8082110BD00000148FFF76F
:1013E000EBBF00BFC402002007B5222300930222F6
:1013F000212303490348FFF7B7FF03B05DF804FB5F
:1014000000200040C4020020F8B52F4F0E46396876
:101410000546144699B920222C4800F0C3F92C4BFC
:101420004FF0FF321A605A602A4B4022C3F88020E6
:10143000C3F8802183F806231A6001233B60222D24
:1014400040D8032C05D0042C05D0022C3AD103241B
:1014500002E0022400E001241F4B1D4953F825201F
:1014600000200B565D1C28D1194B1A54174B43F81A
:101470002060830003F1804303F5C0431202D3F8D8
:10148000101521F4473121F44071C3F81015D3F839
:10149000105502F4F85141EA04422A43C3F81025DA
:1014A000D3F8102542F00102C3F81025012303FAF6
:1014B00000F00A4BC3F80403F8BD9A42D4D00130BF
:1014C0000828CED1F8BD00BF30030020340300202F
:1014D0002803002000E100E0A02D00000060004093
:1014E0002DE9F743114D124E124FDFF84C800024C6
:1014F000A94655F8043B012B12D1D6F80423A3408A
:1015000013420DD0E357013303D058F8243003B110
:101510009847002345F8043CD9F800300193019B1B
:101520000134082CE4D103B0BDE8F0830061004031
:10153000006000402803002034030020FEE7000084
:10154000094B1968094B30B5D3F804050A060B0A94
:1015500002434FF47A71A2FB014501FB0355E00BF6
:1015600040EA454030BD00BF540300200010014058
:1015700038B5044648B1FFF7E3FF054600F01AF816
:10158000FFF7DEFF401B8442F8D838BD074B00222E
:10159000C3F8042182B0D3F80431054A0193019BBA
:1015A00013680133DBB2136002B0704700100140D2
:1015B000540300207047704708B500F011F8FFF79A
:1015C000FAFF0120FFF7D4FFFEF7CEFE034CFEF733
:1015D000FBFE002CFBD0AFF30080F8E7000000001A
:1015E0000D4BE02283F811234FF40032C3F8802121
:1015F0001A604FF0804302220121C3F81825996038
:1016000003F588330020C3F80805C3F80423C3F8A2
:1016100044231960704700BF00E100E0222821D870
:10162000114B124A53F8203013F0200F08BF4FF02F
:10163000A04203F01F03032914D8DFE801F0020ED3
:10164000060A03F5E07300210AE003F5E0730C21BC
:1016500006E003F5E073042102E003F5E0730321E3
:1016600042F82310704700BFA02D00000003005077
:10167000222813D80A4B53F820200A4B12F0200FCF
:1016800002F01F004FF0010208BF4FF0A04382405C
:1016900011B9C3F80C257047C3F80825704700BF7F
:1016A000A02D0000000300500B460146184600F034
:1016B0001FB800001FB51C46094B1B680546D868BB
:1016C00012B9084B1A4600E0074B02928DE80A0057
:1016D00022462B46054900F02DF800F0B7FC00BF6C
:1016E000A8000020972E00005C2E0000692E00004C
:1016F00010B5054C13462CB10A4601460220AFF343
:10170000008010BD204610BD0000000008B5074B4A
:10171000044613B10021AFF30080054B1868836ABB
:1017200003B19847204600F0F3FF00BF000000001F
:101730009C2E00000EB403B5014603AB054853F8D8
:10174000042B0068019300F0F9F802B05DF804EB97
:1017500003B07047A800002070B50E4B0E4CE41A81
:10176000A41000251E46A54204D056F825309847FF
:101770000135F8E700F0CEFF084C094BE41AA4103D
:1017800000251E46A54204D056F82530984701355D
:10179000F8E770BDAC000020AC000020C0000020C5
:1017A000AC00002002440346934202D003F8011B20
:1017B000FAE7704730B500293ED051F8042C0B1FD2
:1017C0001E49002AB8BF9B180A680C4612B95A6015
:1017D0000B6030BD9A420ED919685818824204BF76
:1017E000106852685A6004BF09181960236030BD40
:1017F000994203D80A4651680029F9D1146815198D
:101800009D420AD11B682344D0188142136013D132
:101810000868034413604B680DE002D90C23036091
:1018200030BD18681C18A14204BF0C684968596093
:1018300004BF00191860536030BD00BF5C03002076
:1018400070B5CD1C25F0030508350C2D38BF0C25CF
:10185000002D064603DA0C233360002070BDA94238
:10186000F9D81F4B1C681A462146A1B10B685B1BB7
:101870000ED40B2B03D90B60CC18CD501EE08C423C
:101880000DBF63684B686360136018BF0C4615E0BA
:101890000C464968E9E7134C23681BB9304600F051
:1018A00005FB20602946304600F000FB431CD2D0E7
:1018B000C41C24F00304A0420AD1256004F10B00EB
:1018C000231D20F00700C31A09D05A42E25070BD10
:1018D000211A304600F0EAFA0130EED1BBE770BDC4
:1018E0005C030020580300209368013B002B10B4D8
:1018F000936009DA9469A34202DBCBB20A2B03D1CD
:101900005DF8044B00F0E2BA1368581C10601970BF
:10191000C8B25DF8044B7047F8B506460F4614464A
:10192000D518AC4208D03A4614F8011B3046FFF7F0
:10193000DBFF431CF5D100E00020F8BD2DE9F04F9E
:101940009DB00C4617460393064618B183690BB940
:1019500000F076FC7F4B9C4201D1746808E07E4B1E
:101960009C4201D1B46803E07C4B9C4208BFF46800
:10197000A38918070CD5236953B1002309932023A9
:101980008DF8293030238DF82A30DFF8D4B144E0C7
:101990002146304600F0EEFA0028EED04FF0FF303E
:1019A000D5E0039A111D12680391002A80F28C8001
:1019B000524243F002000792049098F800302E2B18
:1019C00000F08480032298F80010654800F010FDB4
:1019D00048B14023CBEB000003FA00F0049B18430E
:1019E000049008F1010898F800105E488DF828105E
:1019F000062208F1010700F0FBFC002800F09580AA
:101A0000594B002B40F08880039B073323F00703DA
:101A100008330393099B53440993B846454615F888
:101A2000013B1BB9B8EB07090FD003E0252BF9D018
:101A3000A846F3E74B463A4621463046FFF76CFF8F
:101A400001307FD0099B4B44099398F80030002B5C
:101A500078D000234FF0FF3204930793059206934A
:101A60008DF853301A930127052229783F4800F05A
:101A7000BFFC05F10108049B38B13C4A801A07FA03
:101A800000F0184304904546EEE7D90644BF2022F3
:101A90008DF853201A0744BF2B228DF853202A7843
:101AA0002A2A3FF47EAF079A00210A20A846013572
:101AB00098F80030303B092B03D800FB023201219B
:101AC000F4E700293FF479AF079276E798F8013000
:101AD0002A2B0BD1039B1A1D1B680392002BB8BF46
:101AE0004FF0FF3308F1020805936BE700230593DD
:101AF00008F1010019460A258046013098F80020B7
:101B0000303A092A03D805FB01210123F4E7002B11
:101B10003FF458AF059155E703AB00932246144BB1
:101B200004A93046AFF3008007E003AB00932246E0
:101B30000F4B04A9304600F093F8B0F1FF3F824606
:101B40007FF468AFA3895B063FF528AF09981DB005
:101B5000BDE8F08FD42E0000F42E0000142F0000FA
:101B6000A62E0000AA2E000000000000A02E0000FB
:101B7000191900002DE9F04791461F460A698B6844
:101B8000DDF820809342B8BF1346C9F8003091F8C1
:101B9000432006460C4612B10133C9F800302368D1
:101BA000990642BFD9F800300233C9F800302568E1
:101BB00015F0060510D104F1190A07E00123524679
:101BC00039463046C04701301AD00135E368D9F8AC
:101BD00000209B1A9D42F1DB94F8433022680033C9
:101BE00018BF012392060FD5E1185A1C302081F846
:101BF0004300224494F8451082F84310023303E076
:101C00004FF0FF30BDE8F08704F14302394630461B
:101C1000C0470130F4D02268D9F80050E36802F0E0
:101C20000602042A08BF5D1B2269A3680CBF25EACF
:101C3000E57500259342C4BF9B1AED184FF00009CB
:101C40001A344D4509D00123224639463046C04753
:101C50000130D5D009F10109F3E70020BDE8F08794
:101C60002DE9F04317460A7E85B06E2A984606464F
:101C70000C460C9B01F1430E00F0AE8011D8632A94
:101C800022D009D8002A00F0BB80582A40F0CA8030
:101C900081F84520834955E0642A1ED0692A1CD06A
:101CA000C0E0732A00F0B08009D86F2A2ED0702AC5
:101CB00040F0B8800A6842F020020A603EE0752ACF
:101CC00024D0782A3AD0ADE01A6801F14205111DFE
:101CD0001960136884F84230A8E021681A6811F08E
:101CE000800F02D0111D196008E011F0400F02F1C1
:101CF0000401196002D0B2F9003000E01368002B33
:101D00003CDA2D225B4284F8432037E021681A68D0
:101D100011F0800F02D0111D196007E011F0400F83
:101D200002F10401196001D0138800E01368227EDB
:101D30005C496F2A14BF0A2208221BE078225A4904
:101D400084F845202268186812F0800F00F104051D
:101D50001D6003D1550601D5038800E00368D00754
:101D600044BF42F0200222601BB9226822F0200208
:101D700022601022002084F8430001E049490A2231
:101D80006568A560002D08DB206820F00400206055
:101D90002BB9002D7DD175460CE0002B79D075460E
:101DA000B3FBF2F002FB1033CB5C05F8013D0346B8
:101DB0000028F5D1082A0BD12368DA0708D5236952
:101DC00062689A42DEBF302305F8013C05F1FF3519
:101DD000C5EB0E0323612EE008681A68496910F00C
:101DE000800F03D0101D1860136808E010F0400F3A
:101DF00002F104001860136801D0198000E0196036
:101E000000232361754616E01A68111D19601568D4
:101E100062680021284600F0EBFA08B1401B6060C0
:101E2000636804E004F1420584F842200123236141
:101E3000002384F84330CDF800803B4603AA2146B6
:101E40003046FFF797FE013002D14FF0FF3026E019
:101E500023692A4639463046C0470130F5D0236809
:101E60009B0710D5002504F1190907E001234A4614
:101E700039463046C0470130E7D00135E368039A60
:101E80009B1A9D42F2DBE068039B9842B8BF18465C
:101E900005E00B7884F8423004F142058AE705B08A
:101EA000BDE8F083B12E0000C22E000038B5064C0C
:101EB000002305460846236000F014FC431C02D1B1
:101EC000236803B12B6038BD64030020F8B50F46CA
:101ED0001446064618B183690BB900F0B1F9224BDC
:101EE0009C4201D1746808E0204B9C4201D1B46847
:101EF00003E01F4B9C4208BFF468A369A360A38959
:101F00001A0709D523693BB123682069181A636948
:101F10009842FDB20FDB08E02146304600F02AF877
:101F20000028F1D04FF0FF30F8BD2146304600F0D8
:101F30001DF90028F6D1A368013BA36023685A1C51
:101F400022601F706269431C934204D0A389DB079F
:101F500007D50A2D05D12146304600F007F90028A3
:101F6000E0D12846F8BD00BFD42E0000F42E0000BA
:101F7000142F0000314B70B51D6806460C4625B184
:101F8000AB6913B9284600F05BF92D4B9C4201D197
:101F90006C6808E02B4B9C4201D1AC6803E02A4BF3
:101FA0009C4208BFEC68A3899AB211071DD4D506DC
:101FB00002D40922326038E0500712D5616B41B17A
:101FC00004F14403994202D03046FFF7F3FB0023AB
:101FD0006363A38923F02403A3810023636023693F
:101FE0002360A38943F00803A38123694BB9A38924
:101FF00003F42073B3F5007F03D02146304600F090
:10200000A9F9A38913F0010205D00022A260626938
:102010005242A26103E0990758BF6269A260226937
:102020004AB903F0800080B230B143F04003A3818D
:102030004FF0FF3070BD002070BD00BFA800002031
:10204000D42E0000F42E0000142F000008B5062046
:1020500000F048FA012000F05BFB00008A892DE9BE
:10206000F041054610070C4659D44B68002B02DCA2
:102070000B6C002B17DDE66AAEB102F48052002330
:1020800092B22F682B600AB1606D15E0216A0123BE
:102090002846B047411C0FD12B686BB11D2B01D0D6
:1020A000162B03D12F600020BDE8F081A38943F0F7
:1020B0004003A381BDE8F081A3895A0705D5636871
:1020C000C01A636B0BB1236CC01A00230246E66A88
:1020D000216A2846B047431CA38906D129681D29D7
:1020E0003AD8214ACA40D60736D500226260D904C0
:1020F0002269226004D5421C01D12B6803B96065B6
:10210000616B2F600029CED004F14403994202D0C4
:102110002846FFF74FFB00206063BDE8F0810F69A0
:10212000002FC0D093070E6808BF4B690F6018BF1F
:102130000023C7EB06088B6002E00744C0EB0808E9
:10214000B8F1000FAFDD43463A46216AA66A284639
:10215000B0470028F1DCA38943F04003A3814FF08E
:10216000FF30BDE8F08100BF0100402038B50B69A9
:1021700005460C46DBB118B183690BB900F060F875
:102180000C4B9C4201D16C6808E00B4B9C4201D186
:10219000AC6803E0094B9C4208BFEC68B4F90C3012
:1021A0002BB121462846BDE83840FFF757BF002035
:1021B00038BD00BFD42E0000F42E0000142F000004
:1021C000014900F0A9B800BF6D210000002310B53F
:1021D000044603604360836081814366C28103617A
:1021E00043618361194608225C30FFF7DBFA054B37
:1021F0006362054BA362054BE362054B24622363D4
:1022000010BD00BF1D2500003F2500007725000000
:102210009B25000070B568234D1E5D430E4605F1F9
:102220007401FFF70DFB044640B1002180E8420035
:102230000C30A06005F16802FFF7B4FA204670BDCB
:10224000836910B5044633BB8364C3640365124BD2
:10225000124A1B688262984204BF0123836100F026
:102260001FF86060204600F01BF8A060204600F0D8
:1022700017F80022E06004216068FFF7A7FF012241
:102280000921A068FFF7A2FF02221221E068FFF7F0
:102290009DFF0123A36110BD9C2E0000C121000001
:1022A000F8B51C4B1E68B369074613B93046FFF7F3
:1022B000C7FF4836B4687368013B04D4B4F90C50C6
:1022C0007DB16834F8E733680BB13668F2E7042172
:1022D0003846FFF79FFF30600028F6D10C233B60A3
:1022E000F8BD4FF6FF73E3810123A3816566256086
:1022F000A560656025616561A5610822294604F134
:102300005C00FFF74FFA6563A563A564E5642046AA
:10231000F8BD00BF9C2E00002DE9F8438046894699
:1023200000F14804002694B1A5686768013F0CD409
:10233000AB89012B07D9B5F90E30013303D02946FB
:102340004046C84706436835F0E72468EBE7304667
:10235000BDE8F883F0B58B899D0791B006460C4621
:1023600026D4B1F90E10002909DAA38913F0800FE1
:102370004FF0000514BF40274FF480670DE001AA1D
:1023800000F032F90028F0DB029D05F47045A5F558
:1023900000514D424D414FF4806739463046FFF7BA
:1023A0004FFA60B9A3899A051DD443F00203A381B3
:1023B00004F14703236023610123636113E00B4BA6
:1023C000B362A389206043F08003A3812061676129
:1023D0004DB1B4F90E10304600F018F918B1A389C8
:1023E00043F00103A38111B0F0BD00BFC121000083
:1023F00001F0FF01102A2BDB10F0070F08D010F8B6
:10240000013B013A8B422DD010F0070F42B3F6D1B9
:10241000F0B441EA012141EA014122F007047FF0D2
:1024200000070023F0E80256083C85EA010586EA29
:10243000010685FA47F5A3FA87F586FA47F6A5FA65
:1024400087F68EB9EED1F0BC01F0FF0102F0070271
:1024500032B110F8013B013A83EA010313B1F8D11C
:102460000020704701387047002D06BF35460338FD
:10247000073815F0010F07D1013015F4807F02BF36
:10248000013015F4C03F0130F0BC0138704700BF87
:102490001F2938B504460D4604D9162303604FF0B2
:1024A000FF3038BD426C12B152F821304BB9204692
:1024B00000F032F82A4601462046BDE8384000F0D8
:1024C00019B8012B0CD0591C03D11623036001202D
:1024D00038BD0024284642F825409847204638BD9C
:1024E000002038BD024B01461868FFF7D1BF00BF7E
:1024F000A800002038B5074C0023054608461146C1
:10250000236000F0D7F8431C02D1236803B12B608D
:1025100038BD00BF6403002000F0BCB810B50C4605
:10252000B1F90E1000F094F80028ABBF636DA389D9
:102530001B1823F48053ACBF6365A38110BD2DE944
:10254000F0411F468B89DB0505460C46164605D52E
:1025500002230022B1F90E1000F068F8A389B4F943
:102560000E1023F48053A38132463B462846BDE833
:10257000F04100F017B810B50C46B1F90E1000F09C
:1025800055F8431CA38915BF606523F4805343F4B9
:102590008053A38118BFA38110BDB1F90E1000F0C4
:1025A00013B8000038B5074C05460846114600220E
:1025B00022601A4600F0A4F8431C02D1236803B13C
:1025C0002B6038BD6403002038B5064C0023054657
:1025D0000846236000F04EF8431C02D1236803B183
:1025E0002B6038BD6403002038B5074C0023054636
:1025F00008461146236000F045F8431C02D12368C9
:1026000003B12B6038BD00BF6403002038B5064C11
:10261000002305460846236000F044F8431C02D11D
:10262000236803B12B6038BD6403002038B5074C24
:10263000054608461146002222601A4600F042F87C
:10264000431C02D1236803B12B6038BD6403002012
:1026500038B5074C054608461146002222601A4646
:1026600000F038F8431C02D1236803B12B6038BD59
:1026700064030020024B58221A604FF0FF3070476D
:1026800064030020024B58221A604FF0FF3070475D
:1026900064030020024B58221A604FF0FF3070474D
:1026A00064030020024B58221A600020704700BFCC
:1026B00064030020024B58221A604FF0FF3070472D
:1026C00064030020024B58221A604FF0FF3070471D
:1026D00064030020024B58221A604FF0FF3070470D
:1026E00064030020044A05491368002B08BF0B4609
:1026F00018441060184670476003002068030020EB
:10270000024B58221A604FF0FF30704764030020DC
:10271000FEE700BFF8B500BFF8BC08BC9E46704796
:10272000F8B500BFF8BC08BC9E467047000000002A
:1027300000000000510C0000810F00002504000083
:102740006107000017070000490700002507000087
:10275000370700005506000061070000410900002E
:102760003F09000063070000A1070000DB0700002D
:10277000010400003D080000BF0800000000000048
:1027800000000000510C0000810F00003D1500000A
:102790006107000017070000490700002507000037
:1027A00037070000550600006107000041090000DE
:1027B0003F09000063070000A1070000DB070000DD
:1027C000210800003D080000BF08000000000000D4
:1027D000003E5B4F5B3E3E6B4F6B3E1C3E7C3E1CA7
:1027E000183C7E3C181C577D571C1C5E7F5E1C00ED
:1027F000183C1800FFE7C3E7FF0018241800FFE7A4
:10280000DBE7FF30483A060E2629792926407F0566
:102810000507407F05253F5A3CE73C5A7F3E1C1C7C
:1028200008081C1C3E7F14227F22145F5F005F5F3C
:1028300006097F017F006689956A60606060609428
:10284000A2FFA29408047E040810207E201008082D
:102850002A1C08081C2A08081E101010100C1E0C38
:102860001E0C30383E3830060E3E0E0600000000CA
:102870000000005F00000007000700147F147F14B1
:10288000242A7F2A122313086462364956205000F6
:1028900008070300001C2241000041221C002A1CE2
:1028A0007F1C2A08083E08080080703000080808CD
:1028B0000808000060600020100804023E514945ED
:1028C0003E00427F400072494949462141494D330B
:1028D0001814127F1027454545393C4A4949314172
:1028E000211109073649494936464949291E000040
:1028F0001400000040340000000814224114141495
:102900001414004122140802015909063E415D5980
:102910004E7C1211127C7F494949363E4141412289
:102920007F4141413E7F494949417F090909013EB3
:10293000414151737F0808087F00417F41002040DA
:10294000413F017F081422417F404040407F021CEC
:10295000027F7F0408107F3E4141413E7F09090903
:10296000063E4151215E7F091929462649494932CF
:1029700003017F01033F4040403F1F2040201F3F95
:102980004038403F6314081463030478040361591A
:10299000494D43007F41414102040810200041415C
:1029A000417F040201020440404040400003070808
:1029B0000020545478407F28444438384444442804
:1029C000384444287F385454541800087E090218AB
:1029D000A4A49C787F0804047800447D4000204033
:1029E000403D007F1028440000417F40007C047877
:1029F00004787C080404783844444438FC182424BF
:102A00001818242418FC7C0804040848545454243E
:102A100004043F44243C4040207C1C2040201C3CBB
:102A20004030403C44281028444C9090907C4464B2
:102A3000544C440008364100000077000000413645
:102A4000080002010204023C2623263C1EA1A161CB
:102A5000123A4040207A38545455592155557941FD
:102A60002254547842215554784020545579400CD2
:102A70001E527212395555555939545454593955B5
:102A80005454580000457C410002457D42000145F8
:102A90007C407D1211127DF0282528F07C5455458C
:102AA000002054547C547C0A097F493249494932F8
:102AB0003A4444443A324A4848303A4141217A3A09
:102AC00042402078009DA0A07D3D4242423D3D40D5
:102AD00040403D3C24FF2424487E4943662B2FFC84
:102AE0002F2BFF0929F620C0887E09032054547932
:102AF000410000447D413048484A32384040227A03
:102B0000007A0A0A727D0D19317D2629292F28267F
:102B10002929292630484D40203808080808080887
:102B20000808382F10C8ACBA2F102834FA00007BE0
:102B3000000008142A142222142A140855005500F3
:102B400055AA55AA55AAFF55FF55FF000000FF00E2
:102B5000101010FF00141414FF001010FF00FF10DD
:102B600010F010F0141414FC001414F700FF00000F
:102B7000FF00FF1414F404FC141417101F10101F8E
:102B8000101F1414141F00101010F0000000001F7C
:102B9000101010101F10101010F010000000FF1087
:102BA0001010101010101010FF10000000FF140083
:102BB00000FF00FF00001F10170000FC04F41414B5
:102BC0001710171414F404F40000FF00F714141481
:102BD00014141414F700F7141414171410101F1001
:102BE0001F141414F4141010F010F000001F101F24
:102BF0000000001F14000000FC140000F010F01092
:102C000010FF10FF141414FF141010101F00000008
:102C100000F010FFFFFFFFFFF0F0F0F0F0FFFFFF0C
:102C20000000000000FFFF0F0F0F0F0F3844443863
:102C300044FC4A4A4A347E02020606027E027E02B2
:102C400063554941633844443C04407E201E2006BD
:102C5000027E020299A5E7A5991C2A492A1C4C72FA
:102C600001724C304A4D4D303048784830BC625A81
:102C7000463D3E494949007E0101017E2A2A2A2A11
:102C80002A44445F444440514A444040444A5140ED
:102C90000000FF0103E080FF000008086B6B0836AE
:102CA00012362436060F090F06000018180000001F
:102CB0001010003040FF0101001F01011E00191D0E
:102CC0001712003C3C3C3C000000000000000000EB
:102CD000000000008B0D00004F0D0000850D00006E
:102CE000AF0D0000B50D0000830D000053504943A7
:102CF0006C6173733A3A535049436C617373284E55
:102D000052465F5350495F547970652A2C2075698B
:102D10006E74385F742C2075696E74385F742C2063
:102D200075696E74385F742900705F737069202153
:102D30003D204E554C4C00433A5C55736572735CB4
:102D4000676E65696A5C417070446174615C4C6F68
:102D500063616C5C41726475696E6F31355C706182
:102D6000636B616765735C73616E646565706D69E3
:102D7000737472795C68617264776172655C6E52BB
:102D800046355C302E372E305C6C69627261726938
:102D900065735C5350495C5350492E63707000005A
:102DA0000200000003000000040000001F000000FB
:102DB0001C0000000E000000250000000B000000B9
:102DC0000A000000090000001E00000017000000BB
:102DD0000C00000011000000010000000D000000C8
:102DE00022000000FFFFFFFFFFFFFFFF1A000000AF
:102DF0002000000015000000160000000F00000079
:102E00001800000013000000240000000000000073
:102E10001400000005000000100000000800000081
:102E2000190000002800000006000000000000005B
:102E30000000000077110000810F0000E111000088
:102E4000ED110000E7110000751100006D11000088
:102E5000F511000091110000691100002C20667529
:102E60006E6374696F6E3A20006173736572746982
:102E70006F6E2022257322206661696C65643A209A
:102E800066696C6520222573222C206C696E652092
:102E90002564257325730A004300000048000020C4
:102EA000232D302B2000686C4C0065666745464733
:102EB00000303132333435363738394142434445B6
:102EC0004600303132333435363738396162636425
:102ED0006566000000000000000000000000000027
:102EE00000000000000000000000000000000000E2
:102EF00000000000000000000000000000000000D2
:102F000000000000000000000000000000000000C1
:102F100000000000000000000000000000000000B1
:102F200000000000000000000000000000000000A1
:082F3000000000000000000099
:082F38006CD3FF7F01000000D3
:102F40000000000002021516171819010101010105
:102F5000020202020203030303030404040404053F
:102F600005050505040703060A010203040501021D
:102F70000304050102030405010203040501020321
:102F8000040500000090D00300000000D42E0000D3
:102F9000F42E0000142F00000000000000000000CC
:102FA0000000000000000000982E0000000000005B
:102FB0000000000000000000000000000000000011
:102FC0000000000000000000000000000000000001
:102FD00000000000000000000000000000000000F1
:102FE0000000000000000000480000206D0200000A
:102FF000A5030000C50E00004D0F0000E9130000FE
:08300000450200000000000081
:040000030000102DBC
:00000001FF
