:1000000000000220350700005D0700005F070000C8
:1000100061070000630700006507000000000000A2
:100020000000000000000000000000006707000062
:1000300069070000000000006B0700006D0700006A
:100040006F0700006F070000E50A00006F0700005F
:100050006F0700006F070000E90B00006F0700004A
:100060006F0700006F0700006F0700006F070000B8
:100070006F0700006F0700006F0700006F070000A8
:100080006F070000910C00006F0700006F07000071
:100090006F0700006F0700006F0700006F07000088
:1000A0006F0700006F0700006F0700006F07000078
:1000B0006F0700006F070000000000000000000054
:1000C0006F0700006F0700006F0700006F07000058
:1000D0006F0700006F0700006F0700006F07000048
:1000E0006F0700000000000000000000000000009A
:1000F000000000006F070000000000006F07000014
:1001000000000000000000000000000000000000EF
:1001100000000000000000000000000000000000DF
:1001200000000000000000000000000000000000CF
:1001300000000000000000000000000000000000BF
:1001400000000000000000000000000000000000AF
:10015000000000000000000000000000000000009F
:10016000000000000000000000000000000000008F
:10017000000000000000000000000000000000007F
:10018000000000000000000000000000000000006F
:10019000000000000000000000000000000000005F
:1001A000000000000000000000000000000000004F
:1001B000000000000000000000000000000000003F
:1001C000000000000000000000000000000000002F
:1001D000000000000000000000000000000000001F
:1001E000000000000000000000000000000000000F
:1001F00000000000000000000000000000000000FF
:10020000044B05481B1A062B02D9044B03B11847AF
:10021000704700BF7B000020780000200000000035
:1002200005490648091A891001EBD171491002D01D
:10023000034B03B118477047780000207800002076
:100240000000000010B5064C237843B9FFF7D8FF33
:10025000044B13B10448AFF300800123237010BD99
:100260007800002000000000901A000008B5084B3C
:100270001BB108490848AFF300800848036813B968
:10028000BDE80840CCE7064B002BF9D09847F7E7CC
:10029000000000007C000020901A00007400002084
:1002A00000000000154B002B08BF134B9D46A3F523
:1002B000803A00218B460F461348144A121A01F067
:1002C000ABFA0F4B002B00D098470E4B002B00D001
:1002D00098470020002104000D000D48002802D09E
:1002E0000C48AFF3008001F071FA2000290000F003
:1002F000E5FC01F057FA00BF0000080000000220F2
:100300000000000000000000780000203C010020F8
:100310000000000000000000024A1368013313606F
:10032000704700BFA4000020304A314B31481968A3
:10033000136870B5304C314E1160CB1A30492360D0
:10034000304D00F0E3F80A2231682A4800F046F9FF
:100350002D49284800F0DAF80A222968254800F0DB
:100360000EF92A49234800F0D1F80A2221682148D1
:1003700000F005F926491F4800F0C8F82B682468EA
:100380001C48B3FBF4F40A22214600F0F8F8214996
:10039000184800F0BBF807EE904AF8EE677AF7EEDF
:1003A000006A86EEA77ADFED1C7A67EE277A17EEF1
:1003B000900A00F0C1FE41EC100B02210D4800F044
:1003C000B5F916490B4800F0B1F81549094800F095
:1003D000ADF8002333602B600B2000F0CBFC00282D
:1003E000FAD06420BDE8704000F044BC98000020C2
:1003F0009C000020A8000020A0000020A4000020F5
:1004000054180000940000205E1800007C180000C2
:10041000861800009E18000000007A44E1180000D1
:10042000F0180000044A08B513680133136000F0A7
:1004300009FC024B186008BD940000209C000020BD
:1004400008B500F0FFFB014B186008BD9C000020C0
:1004500010B54FF41651144800F00CFA0A24124853
:1004600000F05CF8013CFAD110490F4800F05EF84A
:100470000F490D4800F05AF80E490B4800F056F8A5
:100480002146052000F04CFC21460B2000F048FCE2
:1004900003220949052000F03BFB032207490B20FA
:1004A000BDE8104000F034BBA80000200F19000088
:1004B0003B19000057190000190300002903000030
:1004C0002DE9F04106460D4601EB02080C46444575
:1004D000A4EB050707D0336814F8011B1B683046EE
:1004E00098470028F3D13846BDE8F08170B505463D
:1004F0000C46084649B101F097F92B68024621469F
:1005000028465B68BDE87040184770BD08B5FFF726
:10051000EDFF08BD03681B681847000008B50249D5
:10052000FFF7E4FF08BD00BF481A000038B50546D4
:10053000FFF7DCFF04462846FFF7F0FF204438BDF4
:10054000F0B58BB000238DF82430012A98BF0A2221
:100550000DF12305B1FBF2F402FB1416F3B2092EE0
:1005600094BF30333733DBB22F46214605F80139CB
:10057000002CEFD13946FFF7B9FF0BB0F0BD10B436
:100580002AB903685DF8044B1B68C9B21847D2B298
:100590005DF8044BFFF7D4BF2DE9F04107460E4646
:1005A00015462AB90368C9B21B68BDE8F04118476F
:1005B0000A2A02D1002901DA04E0D2B2BDE8F041F2
:1005C000FFF7BEBF2D21FFF7A5FF2A460446714263
:1005D0003846FFF7B5FF2044BDE8F08138B5054641
:1005E000FFF7DAFF04462846FFF798FF204438BD9E
:1005F0002DE9F843804657EC106B0D4600F00AFCDD
:1006000008B9424910E047EC106B00F003FC0128E8
:1006100001D13F4908E04FF060423E4B3046394639
:1006200001F06EF828B13C494046FFF75FFFBDE896
:10063000F8834FF06042394B3046394601F042F8BA
:100640000028F0D1002200233046394601F03AF864
:1006500040B12D214046FFF75DFF07F100430446FE
:100660001F4600E004462E494FF0000900205FFAC3
:1006700089F39D4206D900222A4B00F0DBFE09F1E6
:100680000109F4E732463B4600F0F8FB0F46064608
:1006900001F068F80A22014681464046FFF750FF04
:1006A00004447DB3484600F025FD02460B46304623
:1006B000394600F0E1FB06460F4640461A49FFF76F
:1006C00015FF0444174B00223046394600F088FDE0
:1006D0000F46064601F01EF80A22014681464046B2
:1006E000FFF75AFF0444484600F014FD02460B464B
:1006F0003046394600F0C0FB013D15F0FF050646C7
:100700000F46DFD12046BDE8F88300BF4B1A00003A
:100710004F1A0000FFFFEF41531A0000FFFFEFC127
:100720000000E03F0000244055190000C9B2FFF767
:100730005FBF00000649074A074B9B1A03DD043BD5
:10074000C858D050FBDC00F013F8FFF7ABFD0000F9
:100750009C1A00000000002078000020FEE7FEE761
:10076000FEE7FEE7FEE7FEE7FEE7FEE7FEE7FEE761
:100770003A4B1A680D2A1FD01B680D2B26D0374B19
:100780001B680D2B09D14FF08043D3F80024D2070A
:1007900003D56FF00102C3F80024314AD2F8883043
:1007A00043F47003C2F88830BFF34F8FBFF36F8FED
:1007B0002C4B2D4A1A6070474FF080420021C2F83E
:1007C0000C11C2F81011C2F83815D5E74FF080525D
:1007D000264BD2F80414C3F82015D2F80814C3F835
:1007E0002415D2F80C14C3F82815D2F81014C3F845
:1007F0002C15D2F81414C3F83015D2F81814C3F815
:100800003415D2F81C14C3F84015D2F82014C3F8DC
:100810004415D2F82414C3F84815D2F82814C3F8A4
:100820004C15D2F82C14C3F85015D2F83014C3F874
:100830005415D2F83414C3F86015D2F83814C3F83C
:100840006415D2F83C14C3F86815D2F84014C3F804
:100850006C15D2F84424C3F8702590E730010010DD
:1008600000ED00E0000000200090D00300C0004038
:100870000120704703681322DB691847704703693A
:10088000C3F81C15D3F81C21002AFBD00022C3F8A2
:100890001C2101207047000090F85C305AB25209C8
:1008A00010B4012120320F4C03F01F0301FA03F3AF
:1008B00044F8223003695DF8044B0422C3F808238E
:1008C00000225960D960C3F800254FF0FF32C3F809
:1008D0000C251430C3F81425C3F80825C3F81025D7
:1008E00000F078BA00E100E0143000F085BA14306E
:1008F00000F088BA143000F071BA0000026990F874
:100900005E3030B5C2F80C3590F85D30C2F8143561
:1009100090F86130012B01BF90F85F40C2F810459C
:1009200090F86040C2F8084518BF0023B1F5966FF3
:10093000C2F86C352ED9B1F5166F2ED9B1F5965F88
:100940002ED9B1F5165F2DD9B1F5615F2CD9B1F56E
:10095000964F2BD9B1F5E14F2AD9B1F5164F29D9C8
:10096000B1F5614F29D9B1F5963F29D9B1F5E13FEC
:1009700028D9B1F5613F28D9344B994228D9B1F52E
:10098000E12F28D9B1F5612F8CBF4FF080534FF084
:10099000706322E04FF49E231FE04FF41D231CE000
:1009A0002B4B1AE02B4B18E02B4B16E02B4B14E093
:1009B0002B4B12E04FF41D030FE04FF46B030CE0E0
:1009C000284B0AE04FF0EB7307E04FF06C7304E044
:1009D0004FF0806301E04FF0E863C2F82435002156
:1009E0000423C2F80035C2F80811C2F81C11012115
:1009F00011609160C2F8043390F85C2053B2D2B217
:100A000002F01F055C09A9406034174D002B45F822
:100A1000241006DA154B02F00F02134460221A76F6
:100A200006E003F1604303F56143602283F800238D
:100A300090F85C3001215AB203F01F0301FA03F36E
:100A40005209094941F8223030BD00BF90D003005F
:100A500000B013000050270000F03A0000A04E0044
:100A600000C0750000903A0100E100E0FCEC00E0FD
:100A70002DE9F0411E464FF47A73002583600E4B3A
:100A80004560044640F8143B1746884600F08CF950
:100A90000A4AC4F8108052F8263084F85D309DF878
:100AA000183084F85C7052F8233084F85E3084F893
:100AB00061502046BDE8F081601A0000BC190000BA
:100AC0000369D3F8082110B504464AB1D3F81815C4
:100AD0001430C9B200F073F923690022C3F8082169
:100AE00010BD00000148FFF7EBBF00BFA8000020C9
:100AF00007B5222300930222212303490348FFF76D
:100B0000B7FF03B05DF804FB00200040A800002000
:100B1000F8B52F4F0E4639680546144699B920227C
:100B20002C4800F079FE2C4B4FF0FF321A605A60CF
:100B30002A4B4022C3F88020C3F8802183F8062383
:100B40001A6001233B60222D40D8032C05D0042CD1
:100B500005D0022C3AD1032402E0022400E0012453
:100B60001F4B1D4953F8252000200B565D1C28D132
:100B7000194B1A54174B43F82060830003F180434C
:100B800003F5C0431202D3F8101521F4473121F4C4
:100B90004071C3F81015D3F8105502F4F85141EA2A
:100BA00004422A43C3F81025D3F8102542F001026D
:100BB000C3F81025012303FA00F00A4BC3F804031D
:100BC000F8BD9A42D4D001300828CED1F8BD00BF7C
:100BD00014010020180100200C01002000E100E0B9
:100BE000BC190000006000402DE9F743114D124E82
:100BF000124FDFF84C800024A94655F8043B012B26
:100C000012D1D6F80423A34013420DD0E357013389
:100C100003D058F8243003B19847002345F8043C2A
:100C2000D9F800300193019B0134082CE4D103B0C2
:100C3000BDE8F08300610040006000400C0100202E
:100C400018010020094B1968094B30B5D3F8040589
:100C50000A060B0A02434FF47A71A2FB014501FB1D
:100C60000355E00B40EA454030BD00BF380100208D
:100C70000010014038B5044648B1FFF7E3FF0546D0
:100C800000F01AF8FFF7DEFF401B8442F8D838BDA9
:100C9000074B0022C3F8042182B0D3F80431054A7F
:100CA0000193019B13680133DBB2136002B07047FC
:100CB00000100140380100207047704708B500F06F
:100CC00011F8FFF7FAFF0120FFF7D4FFFFF7C0FB91
:100CD000034CFFF7A7FB002CFBD0AFF30080F8E735
:100CE000000000000D4BE02283F811234FF4003286
:100CF000C3F880211A604FF0804302220121C3F81B
:100D00001825996003F588330020C3F80805C3F857
:100D10000423C3F844231960704700BF00E100E0DA
:100D2000222821D8114B124A53F8203013F0200FFB
:100D300008BF4FF0A04203F01F03032914D8DFE8D7
:100D400001F0020E060A03F5E07300210AE003F544
:100D5000E0730C2106E003F5E073042102E003F5E3
:100D6000E073032142F82310704700BFBC19000054
:100D700000030050222811D8094B53F82000094BDA
:100D800010F0200F08BF4FF0A04300F01F00D3F871
:100D9000103523FA00F000F0010070470020704782
:100DA000BC1900000003005010B540220446002189
:100DB00000F032FD002323646364204610BD026C02
:100DC00010B5531C446C03F03F039C421CBF81547C
:100DD000036410BD0023036443647047436C026CDA
:100DE00093421FBFC25C013303F03F03436414BF4F
:100DF00010464FF0FF307047036C406C181A48BF24
:100E000040307047436C026C934214BFC05C4FF09B
:100E1000FF30704753EC102B33F0004110B408D072
:100E20001148A3F58014844208D804205DF8044BCF
:100E300070471AB902205DF8044B704703F1FF4375
:100E4000094803F5E0038342EFD9B1F5801F01D2D1
:100E50000320EBE7054B994201D00020E6E7B2FA08
:100E600082F04009E2E700BFFFFFDF7F0000F07F74
:100E700081F0004102E000BF83F0004330B54FEA4B
:100E800041044FEA430594EA050F08BF90EA020FB8
:100E90001FBF54EA000C55EA020C7FEA645C7FEA4B
:100EA000655C00F0E2804FEA5454D4EB5555B8BF6E
:100EB0006D420CDD2C4480EA020281EA030382EADF
:100EC000000083EA010180EA020281EA0303362D71
:100ED00088BF30BD11F0004F4FEA01314FF4801C44
:100EE0004CEA113102D0404261EB410113F0004F56
:100EF0004FEA03334CEA133302D0524263EB43030D
:100F000094EA050F00F0A780A4F10104D5F1200EAA
:100F10000DDB02FA0EFC22FA05F2801841F1000105
:100F200003FA0EF2801843FA05F359410EE0A5F1D9
:100F300020050EF1200E012A03FA0EFC28BF4CF00A
:100F4000020C43FA05F3C01851EBE37101F00045C0
:100F500007D54FF0000EDCF1000C7EEB00006EEBCD
:100F60000101B1F5801F1BD3B1F5001F0CD3490857
:100F70005FEA30004FEA3C0C04F101044FEA4452AE
:100F800012F5800F80F09A80BCF1004F08BF5FEA35
:100F9000500C50F1000041EB045141EA050130BD15
:100FA0005FEA4C0C404141EB010111F4801FA4F1B8
:100FB0000104E9D191F0000F04BF01460020B1FA0D
:100FC00081F308BF2033A3F10B03B3F120020CDA45
:100FD0000C3208DD02F1140CC2F10C0201FA0CF023
:100FE00021FA02F10CE002F11402D8BFC2F1200C88
:100FF00001FA02F120FA0CFCDCBF41EA0C0190403E
:10100000E41AA2BF01EB0451294330BD6FEA040486
:101010001F3C1CDA0C340EDC04F11404C4F1200271
:1010200020FA04F001FA02F340EA030021FA04F383
:1010300045EA030130BDC4F10C04C4F1200220FADA
:1010400002F001FA04F340EA0300294630BD21FA18
:1010500004F0294630BD94F0000F83F4801306BFDE
:1010600081F480110134013D4EE77FEA645C18BFD2
:101070007FEA655C29D094EA050F08BF90EA020F69
:1010800005D054EA000C04BF1946104630BD91EA61
:10109000030F1EBF0021002030BD5FEA545C05D164
:1010A0004000494128BF41F0004130BD14F58004A3
:1010B0003CBF01F5801130BD01F0004545F0FE4117
:1010C00041F470014FF0000030BD7FEA645C1ABF4C
:1010D000194610467FEA655C1CBF0B46024650EA83
:1010E000013406BF52EA033591EA030F41F40021AF
:1010F00030BD00BF90F0000F04BF0021704730B535
:101100004FF4806404F132044FF000054FF0000109
:1011100050E700BF90F0000F04BF0021704730B5CA
:101120004FF4806404F1320410F0004548BF40429F
:101130004FF000013EE700BF42004FEAE2014FEAF4
:1011400031014FEA02701FBF12F07F4393F07F4FCF
:1011500081F06051704792F0000F14BF93F07F4F01
:10116000704730B54FF4607401F0004521F0004144
:1011700020E700BF50EA010208BF704730B54FF0CA
:1011800000050AE050EA010208BF704730B511F0CF
:10119000004502D5404261EB41014FF4806404F107
:1011A00032045FEA915C3FF4DCAE4FF003025FEA89
:1011B000DC0C18BF03325FEADC0C18BF033202EB11
:1011C000DC02C2F1200300FA03FC20FA02F001FA6B
:1011D00003FE40EA0E0021FA02F11444C1E600BF0A
:1011E00070B54FF0FF0C4CF4E06C1CEA11541DBFBD
:1011F0001CEA135594EA0C0F95EA0C0F00F0DEF888
:101200002C4481EA030621EA4C5123EA4C5350EA6C
:10121000013518BF52EA033541F4801143F48013BD
:1012200038D0A0FB02CE4FF00005E1FB02E506F04E
:101230000042E0FB03E54FF00006E1FB03569CF0A3
:10124000000F18BF4EF0010EA4F1FF04B6F5007FA9
:1012500064F5407404D25FEA4E0E6D4146EB06061B
:1012600042EAC62141EA55514FEAC52040EA5E50A4
:101270004FEACE2EB4F1FD0C88BFBCF5E06F1ED84E
:10128000BEF1004F08BF5FEA500E50F1000041EB85
:10129000045170BD06F0004646EA010140EA020032
:1012A00081EA0301B4EB5C04C2BFD4EB0C0541EA54
:1012B000045170BD41F480114FF0000E013C00F369
:1012C000AB8014F1360FDEBF002001F0004170BD8D
:1012D000C4F10004203C35DA0C341BDC04F11404A6
:1012E000C4F1200500FA05F320FA04F001FA05F232
:1012F00040EA020001F0004221F0004110EBD370FF
:1013000021FA04F642EB06015EEA430E08BF20EA2A
:10131000D37070BDC4F10C04C4F1200500FA04F3CD
:1013200020FA05F001FA04F240EA020001F000415F
:1013300010EBD37041F100015EEA430E08BF20EAD2
:10134000D37070BDC4F1200500FA05F24EEA020E1A
:1013500020FA04F301FA05F243EA020321FA04F049
:1013600001F0004121FA04F220EA020000EBD37000
:101370005EEA430E08BF20EAD37070BD94F0000F00
:101380000FD101F00046400041EB010111F4801F34
:1013900008BF013CF7D041EA060195F0000F18BFE5
:1013A000704703F00046520043EB030313F4801F21
:1013B00008BF013DF7D043EA0603704794EA0C0FDB
:1013C0000CEA135518BF95EA0C0F0CD050EA4106F1
:1013D00018BF52EA4306D1D181EA030101F000416E
:1013E0004FF0000070BD50EA410606BF1046194696
:1013F00052EA430619D094EA0C0F02D150EA0136A2
:1014000013D195EA0C0F05D152EA03361CBF1046E2
:1014100019460AD181EA030101F0004141F0FE4181
:1014200041F470014FF0000070BD41F0FE4141F405
:10143000780170BD70B54FF0FF0C4CF4E06C1CEA05
:1014400011541DBF1CEA135594EA0C0F95EA0C0FBA
:1014500000F0A7F8A4EB050481EA030E52EA033575
:101460004FEA013100F088804FEA03334FF0805596
:1014700045EA131343EA12634FEA022245EA1115C3
:1014800045EA10654FEA00260EF000419D4208BF74
:10149000964244F1FD0404F5407402D25B084FEA21
:1014A0003202B61A65EB03055B084FEA32024FF4CD
:1014B00080104FF4002CB6EB020E75EB030E22BF2A
:1014C000B61A754640EA0C005B084FEA3202B6EBEA
:1014D000020E75EB030E22BFB61A754640EA5C0099
:1014E0005B084FEA3202B6EB020E75EB030E22BF29
:1014F000B61A754640EA9C005B084FEA3202B6EB2A
:10150000020E75EB030E22BFB61A754640EADC00E8
:1015100055EA060E18D04FEA051545EA16754FEA4A
:1015200006164FEAC30343EA52734FEAC2025FEA68
:101530001C1CC0D111F4801F0BD141EA00014FF0F7
:1015400000004FF0004CB6E711F4801F04BF0143C8
:101550000020B4F1FD0C88BFBCF5E06F3FF6AFAEE4
:10156000B5EB030C04BFB6EB020C5FEA500C50F174
:10157000000041EB045170BD0EF0004E4EEA1131F7
:1015800014EB5C04C2BFD4EB0C0541EA045170BDFE
:1015900041F480114FF0000E013C90E645EA060E42
:1015A0008DE60CEA135594EA0C0F08BF95EA0C0F70
:1015B0003FF43BAF94EA0C0F0AD150EA01347FF4B8
:1015C00034AF95EA0C0F7FF425AF104619462CE78F
:1015D00095EA0C0F06D152EA03353FF4FDAE1046F2
:1015E000194622E750EA410618BF52EA43067FF443
:1015F000C5AE50EA41047FF40DAF52EA43057FF4D3
:10160000EBAE12E74FF0FF3C06E000BF4FF0010CDD
:1016100002E000BF4FF0010C4DF804CD4FEA410C41
:101620007FEA6C5C4FEA430C18BF7FEA6C5C1BD00E
:1016300001B050EA410C0CBF52EA430C91EA030F8F
:1016400002BF90EA020F0020704710F1000F91EAEC
:10165000030F58BF994208BF90422CBFD8176FEABA
:10166000E37040F0010070474FEA410C7FEA6C5C88
:1016700002D150EA013C07D14FEA430C7FEA6C5C8F
:10168000D6D152EA033CD3D05DF8040B704700BFBB
:101690008446104662468C461946634600E000BF09
:1016A00001B5FFF7B7FF002848BF10F1000F01BDDB
:1016B0004DF808EDFFF7F4FF0CBF012000205DF8A6
:1016C00008FB00BF4DF808EDFFF7EAFF34BF01202B
:1016D00000205DF808FB00BF4DF808EDFFF7E0FFC4
:1016E00094BF012000205DF808FB00BF4DF808ED15
:1016F000FFF7CEFF94BF012000205DF808FB00BF7C
:101700004DF808EDFFF7C4FF34BF012000205DF85D
:1017100008FB00BF4FEA410212F5001215D211D5A5
:101720006FF47873B3EB625212D94FEAC12343F0DE
:10173000004343EA505311F0004F23FA02F018BF60
:10174000404270474FF00000704750EA013005D129
:1017500011F0004008BF6FF0004070474FF00000EC
:10176000704700BF4A0011D212F5001211D20DD5F8
:101770006FF47873B3EB62520ED44FEAC12343F097
:10178000004343EA505323FA02F070474FF0000041
:10179000704750EA013002D14FF0FF3070474FF0F0
:1017A0000000704708B5074B044613B10021AFF3A2
:1017B0000080054B1868836A03B19847204600F003
:1017C0003BF800BF000000008C1A000070B50E4B03
:1017D0000E4CE41AA41000251E46A54204D056F86B
:1017E000253098470135F8E700F028F8084C094BF8
:1017F000E41AA41000251E46A54204D056F8253050
:1018000098470135F8E770BD6400002064000020AF
:10181000700000206400002002440346934202D07E
:1018200003F8011BFAE77047034613F8012B002A5F
:10183000FBD1181A01387047FEE700BFF8B500BFAA
:10184000F8BC08BC9E467047F8B500BFF8BC08BCA1
:101850009E46704754656C6C6572203D2000416166
:101860006E74616C206B6572656E206C6F6F70209A
:10187000646F6F726C6F70656E3A2000206B6565E7
:101880007220696E2000206D696C6C697365636FEE
:101890006E64656E2C206461742069732000206B77
:1018A00065657220646F6F72206465206C6F6F7065
:1018B00020706572207365636F6E64652C206F669F
:1018C000746577656C2031206B65657220646F6F7D
:1018D00072206465206C6F6F70206475757274205F
:1018E00000206D696C6C697365636F6E64652E00B2
:1018F00054656C6C6572732077656572206E6161EA
:10190000722030207A657474656E2E2E2E0A005F68
:101910005F5F5F5F5F5F5F5F5F556974676562729E
:101920006569646520426F756E63652064656D6FDF
:101930005F5F5F5F5F5F5F5F5F5F004472756B203B
:101940006F70206B6E6F70204120766F6F72206217
:101950006F756E63652E004472756B206F70206B1F
:101960006E6F702042206F6D2074656C6C657277AD
:1019700061617264652077656572207465206765B2
:1019800076656E20696E2064652053657269616CAE
:10199000204D6F6E69746F7220656E2074656C6C7B
:1019A00065722077656572206E61617220302074E7
:1019B00065207A657474656E2E0A000002000000CE
:1019C00003000000040000001F0000001C000000D5
:1019D0000E000000250000000B0000000A000000BF
:1019E000090000001E000000170000000C000000AD
:1019F00011000000010000000D00000022000000A6
:101A0000FFFFFFFFFFFFFFFF1A00000020000000A4
:101A100015000000160000000F0000001800000074
:101A2000130000002400000000000000140000006B
:101A30000500000010000000080000001900000070
:101A400028000000060000000D0A006E616E0069AB
:101A50006E66006F76660000000000000000000067
:101A60007F080000C1040000E9080000F50800003C
:101A7000EF0800007D08000075080000FD08000068
:101A800099080000710800004300000004000020D5
:041A90000000000052
:081A940010E8FF7F01000000D3
:101A9C000090D003000000000000000000000000D7
:101AAC00000000000000000000000000000000002A
:101ABC0000000000881A0000000000000000000078
:101ACC00000000000000000000000000000000000A
:101ADC0000000000000000000000000000000000FA
:101AEC0000000000000000000000000000000000EA
:101AFC00000000006D02000041040000F10A00002B
:081B0C0045020000000000008A
:0400000300000735BD
:00000001FF
