:1000000000000220411F0000691F00006B1F00005C
:100010006D1F00006F1F0000711F00000000000036
:10002000000000000000000000000000731F00003E
:10003000751F000000000000771F0000791F0000FE
:100040007B1F00007B1F0000F122000085110000D3
:10005000791100007B1F00007B1F00007B1F000048
:100060007B1F00007B1F0000211400007B1F00008D
:100070007B1F00007B1F00007B1F00007B1F000018
:100080007B1F0000892300007B1F00007B1F0000F6
:100090007B1F00007B1F00007B1F00007B1F0000F8
:1000A0007B1F00007B1F00007B1F00007B1F0000E8
:1000B0007B1F00007B1F000000000000000000000C
:1000C0007B1F00007B1F00007B1F00007B1F0000C8
:1000D0007B1F00007B1F00007B1F00007B1F0000B8
:1000E0007B1F000000000000000000000000000076
:1000F000000000007B1F0000000000007B1F0000CC
:1001000000000000000000000000000000000000EF
:1001100000000000000000000000000000000000DF
:1001200000000000000000000000000000000000CF
:1001300000000000000000000000000000000000BF
:1001400000000000000000000000000000000000AF
:10015000000000000000000000000000000000009F
:10016000000000000000000000000000000000008F
:10017000000000000000000000000000000000007F
:10018000000000000000000000000000000000006F
:10019000000000000000000000000000000000005F
:1001A000000000000000000000000000000000004F
:1001B000000000000000000000000000000000003F
:1001C000000000000000000000000000000000002F
:1001D000000000000000000000000000000000001F
:1001E000000000000000000000000000000000000F
:1001F00000000000000000000000000000000000FF
:10020000044B05481B1A062B02D9044B03B11847AF
:10021000704700BFDB000020D80000200000000075
:1002200005490648091A891001EBD171491002D01D
:10023000034B03B118477047D8000020D8000020B6
:100240000000000010B5064C237843B9FFF7D8FF33
:10025000044B13B10448AFF300800123237010BD99
:10026000D800002000000000BC44000008B5084B86
:100270001BB108490848AFF300800848036813B968
:10028000BDE80840CCE7064B002BF9D09847F7E7CC
:1002900000000000DC000020BC440000D40000206E
:1002A00000000000154B002B08BF134B9D46A3F523
:1002B000803A00218B460F461348144A121A02F066
:1002C0004FFA0F4B002B00D098470E4B002B00D05D
:1002D00098470020002104000D000D48002802D09E
:1002E0000C48AFF3008002F0F3F92000290002F07F
:1002F00061F802F0C7F900BF00000800000002200A
:100300000000000000000000D80000208003002052
:10031000000000000000000070B501211B20474DC7
:1003200002F01EF91E242E461B20012102F042F984
:10033000286800283BD0013800BF00BF00BF00BFC5
:1003400000BF00BF00BF00BF00BF00BF00BF00BFB5
:1003500000BF00BF00BF00BF00BF00BF00BF00BFA5
:1003600000BF00BF00BF00BF00BF00BF00BF00BF95
:1003700000BF00BF00BF00BF00BF00BF00BF00BF85
:1003800000BF00BF00BF00BF00BF00BF00BF00BF75
:1003900000BF00BF00BF00BF00BF00BF00BF00BF65
:1003A00000BF00BF00BF00BF00BF00BFC3D11B2004
:1003B000002102F0FFF8306800283BD0013800BF70
:1003C00000BF00BF00BF00BF00BF00BF00BF00BF35
:1003D00000BF00BF00BF00BF00BF00BF00BF00BF25
:1003E00000BF00BF00BF00BF00BF00BF00BF00BF15
:1003F00000BF00BF00BF00BF00BF00BF00BF00BF05
:1004000000BF00BF00BF00BF00BF00BF00BF00BFF4
:1004100000BF00BF00BF00BF00BF00BF00BF00BFE4
:1004200000BF00BF00BF00BF00BF00BF00BF00BFD4
:1004300000BFC3D1013C7FF477AF70BD0400002042
:1004400010B501211B2002F08BF840F6B8340121D1
:100450001B2002F0AFF82046013800BF00BF00BFEC
:1004600000BF00BF00BF00BF00BF00BF00BF00BF94
:1004700000BF00BF00BF00BF00BF00BF00BF00BF84
:1004800000BF00BF00BF00BF00BF00BF00BF00BF74
:1004900000BF00BF00BF00BF00BF00BF00BF00BF64
:1004A00000BF00BF00BF00BF00BF00BF00BF00BF54
:1004B00000BF00BF00BF00BF00BF00BF00BF00BF44
:1004C00000BF00BF00BF00BF00BF00BF00BFC3D15F
:1004D00000211B2002F06EF82046013800BF00BF4B
:1004E00000BF00BF00BF00BF00BF00BF00BF00BF14
:1004F00000BF00BF00BF00BF00BF00BF00BF00BF04
:1005000000BF00BF00BF00BF00BF00BF00BF00BFF3
:1005100000BF00BF00BF00BF00BF00BF00BF00BFE3
:1005200000BF00BF00BF00BF00BF00BF00BF00BFD3
:1005300000BF00BF00BF00BF00BF00BF00BF00BFC3
:1005400000BF00BF00BF00BF00BF00BF00BF00BFB3
:10055000C3D10A3C642C7FF47AAF10BD38B51B4C74
:100560001B491C481C4D01F02FFC0A222168194828
:1005700001F09CFC1949174801F026FC0A22296861
:10058000144801F067FC052002F030F8B8B91449AE
:10059000104801F029FC134A002313705370937024
:1005A000D3701371104A236002214FF47A702860CF
:1005B000117001F0DBFEBDE83840FFF741BF0B20B2
:1005C00002F014F80028DED1E1E700BF5801002056
:1005D0003C380000040300200C0000204A380000D2
:1005E0007F3800000F0100200800002008B50649F0
:1005F000064800F01BFF0649064801F0E5FBBDE890
:100600000840FFF7ABBF00BFE93C00001401002029
:1006100089380000040300202DE9F843254A264BC1
:10062000264D196813682868CB1A83423FD3244C9F
:100630001160611D224612F8013F5B0003F01F03A9
:100640008A421370F7D11F4A13680133022B1360DB
:1006500017461CDD1C4E96F80090B046317889454F
:1006600005D1052001F05EFE88F80000F6E70022C3
:1006700014F8013F914202F1010214BF43F001035B
:1006800023F00103052A2370F2D100233B600F4BB6
:100690000F4901221A702B680A680A3B023A642B40
:1006A0002B600A6003D8BDE8F843FFF79FBFBDE8A1
:1006B000F88300BF5C010020F80000200C0000203F
:1006C0000E01002008010020F4000020F6000020A8
:1006D0000400002038B501211B2001F041FF032553
:1006E000642401211B2001F065FF2046013800BF72
:1006F00000BF00BF00BF00BF00BF00BF00BF00BF02
:1007000000BF00BF00BF00BF00BF00BF00BF00BFF1
:1007100000BF00BF00BF00BF00BF00BF00BF00BFE1
:1007200000BF00BF00BF00BF00BF00BF00BF00BFD1
:1007300000BF00BF00BF00BF00BF00BF00BF00BFC1
:1007400000BF00BF00BF00BF00BF00BF00BF00BFB1
:1007500000BF00BF00BF00BF00BF00BF00BF00BFA1
:1007600000BFC3D100211B2001F024FF2046013827
:1007700000BF00BF00BF00BF00BF00BF00BF00BF81
:1007800000BF00BF00BF00BF00BF00BF00BF00BF71
:1007900000BF00BF00BF00BF00BF00BF00BF00BF61
:1007A00000BF00BF00BF00BF00BF00BF00BF00BF51
:1007B00000BF00BF00BF00BF00BF00BF00BF00BF41
:1007C00000BF00BF00BF00BF00BF00BF00BF00BF31
:1007D00000BF00BF00BF00BF00BF00BF00BF00BF21
:1007E00000BF00BFC3D140F6C4130F349C427FF456
:1007F00078AF013D7FF474AF38BD000010B50C4CEC
:100800000C49204600F012FE0B490C4801F0ECFAAE
:10081000FFF760FF20460A4900F04AFE094B2046D8
:10082000196800F07FFEBDE81040FFF797BE00BFDB
:1008300014010020E43C0000923800000403002072
:100840009C3800005801002070B5052001F0CEFE54
:10085000144CB0FA80F0400920700B2001F0C6FE65
:10086000114B25780646B0FA80F0400918700F4BFE
:100870001A78AA4219460E4B05D0012D03D11A78D9
:100880000AB1013A1A700B4A1478844206D02EB984
:100890001C78032C9EBF064E0134347010700D700E
:1008A000187870BD0E01002060010020F5000020C6
:1008B000080000200C0100202DE9F8432F4F304E96
:1008C0003B6832689B1A312B56D9FFF7BDFF2D4B81
:1008D0002D4D1A78287098462C4C5AB300220521C9
:1008E000134614F803E01EF0100F08BF194603F179
:1008F000010318BF0132052BF3D1042A17D1884216
:1009000013D1DFF89C90D9F800300133C9F80030DA
:10091000FFF702FD1E491F4801F056FA0A22D9F8D6
:1009200000101C4801F0C2FA01E0FFF767FF002346
:1009300088F80030184BDFF86C801A7832B12978CB
:10094000625C42F01002625400220BE098F8001042
:10095000625C02F00F0262542978625C02F00F02BE
:100960006254012209490D481A7000F05FFD2B788E
:1009700088F800303B683360BDE8F883F800002059
:1009800054010020F6000020080000200F01002084
:100990004238000004030020090000201401002058
:1009A000580100200D01002008B501F0C7FC044BE0
:1009B0001860FFF781FFBDE80840FFF72DBE00BFBC
:1009C000F800002010B5074C0749084800F00CF962
:1009D000204600F051FC2046054A0649BDE810407B
:1009E00001F01EBE1401002064010020FC00002064
:1009F000000000209D12000010B5144C144800F0B7
:100A000045FA204600F06CF9204600F037F9114C09
:100A1000022001F001FD01F081FC20464FF4165147
:100A200001F02EFB0C49204601F0DEF90B4800F0E6
:100A30009BFC0021052001F093FD00210B2001F01B
:100A40008FFDBDE81040FFF7FBBC00BFFC0000209D
:100A50006401002004030020A338000014010020DA
:100A600008B5012300F090F9B0FA80F0400908BD04
:100A700013B502AC012304F8012D224600F064F9FD
:100A8000B0FA80F0400902B010BD37B50D460DF147
:100A9000070220210446FFF7E3FF68B19DF8072015
:100AA00022F001022A43202120468DF80720FFF77B
:100AB000DFFF003018BF012003B030BD37B50D4651
:100AC0000DF1070220210446FFF7CAFF68B19DF827
:100AD000072022F002022A43202120468DF8072019
:100AE000FFF7C6FF003018BF012003B030BD37B597
:100AF0000D460DF1070220210446FFF7B1FF68B152
:100B00009DF8072022F004022A43202120468DF878
:100B10000720FFF7ADFF003018BF012003B030BD44
:100B200037B50D460DF1070220210446FFF798FF67
:100B300068B19DF8072002F00F022A4320212046C9
:100B40008DF80720FFF794FF003018BF012003B095
:100B500030BD37B50D460DF1070223210446FFF7DE
:100B60007FFF68B19DF8072022F030022A4323213D
:100B700020468DF80720FFF77BFF003018BF0120CB
:100B800003B030BD37B50D460DF1070223210446F1
:100B9000FFF766FF68B19DF8072002F07F022A4345
:100BA000232120468DF80720FFF762FF003018BF91
:100BB000012003B030BD37B50D460DF107022E21DF
:100BC0000446FFF74DFF68B19DF8072002F03F0291
:100BD0002A432E2120468DF80720FFF749FF0030D9
:100BE00018BF012003B030BD322202710022016023
:100BF00042717047F7EE007AB4EEE70AF1EE10FAB0
:100C000008B525D9F2EE047AB4EEE70AF1EE10FA4F
:100C100020D9F3EE097AB4EEE70AF1EE10FA1BD907
:100C2000DFED137AB4EEE70AF1EE10FA16D9DFED34
:100C3000117AB4EEE70AF1EE10FA11D9DFED0E7A6F
:100C4000B4EEE70AF1EE10FA94BF6021702108E0DB
:100C5000102106E0202104E0302102E0402100E0E4
:100C60005021FFF75DFFB0FA80F0400908BD00BFDA
:100C7000000048420000C8420000484310B54379D4
:100C8000012B044607D090ED020AFFF7B3FF0128BD
:100C900002D001236371002010BDF0EE007AB4EEA3
:100CA000E70AF1EE10FA08B510D9F1EE007AB4EEC9
:100CB000E70AF1EE10FA0BD9F2EE007AB4EEE70A89
:100CC000F1EE10FA94BF2021302102E0002100E073
:100CD0001021FFF73EFFB0FA80F0400908BD000088
:100CE00010B580210446FFF74DFF08B9012010BD63
:100CF00000212046FFF75FFF0028F7D000212046A3
:100D0000FFF70EFF0028F1D0B0EE000A2046FFF7F3
:100D1000C4FF0128EAD001212046FFF7B6FE0028D3
:100D2000E4D002212046FFF7C9FE0028DED00421CE
:100D30002046FFF7DCFE0028D8D00020014B607170
:100D4000A36010BD0000C842F8B50D460179044605
:100D50004908006816461F4600F053F920680368EA
:100D600029461B6898473546AB1B9F4206DD206825
:100D700015F8011B03681B689847F5E701212068F7
:100D800000F049F90020F8BDF8B50F460179044696
:100D90004908006815461E4600F033F920680368CC
:100DA00039461B6898470021206800F034F9217902
:100DB0002068F2B2490800F021F9013D206803687B
:100DC0009B68984730B120680368DB68984705F84E
:100DD000010FF3E7F8BD2DE9F84380460D461746AD
:100DE00001EB02090C464C45A4EB050609D0D8F8E6
:100DF000003014F8011B1B68404698470028F2D1C8
:100E000000E03E463046BDE8F8837047203001F0F0
:100E10007FB838B5437F0D462BB100F168042046FA
:100E200001F084F808B1002038BD2046294601F0C1
:100E300052F8012038BD203001F05CB8203001F0BC
:100E40006DB800002DE9F0411E464FF47A7300257D
:100E500083600D4B4560044640F8203B88461746AA
:100E600001F02EF804F1680001F02AF89DF818301E
:100E700063769DF81C30A376C4F8108067612676EF
:100E800065772046BDE8F081C4380000F0B5837E68
:100E90002D4C2E4D54F82320437E54F8233012F06D
:100EA000200F14BF2F464FF0A04702F01F0213F08F
:100EB000200F03F01F0308BF4FF0A04502F5E072BA
:100EC00003F5E073012140F20C66C17647F8226019
:100ED00045F8236003694FF0CC72C3F8242506223D
:100EE000C3F80025827E54F82220C3F80825427EEC
:100EF00054F82220C3F80C25027E53B2D2B202F07D
:100F00001F055C09A9406034114D002B45F82410E1
:100F100006DA104B02F00F02134440221A7606E064
:100F200003F1604303F56143402283F80023037E0D
:100F300001215AB203F01F0301FA03F352090449D5
:100F400041F82230F0BD00BFF44200000003005021
:100F500000E100E0FCEC00E02DE9F843064689469C
:100F600098461546B2B100F12007384600F0BEFFA2
:100F700034690122C4F888952262C4F83475C4F833
:100F800038552260D4F84C313BB9D4F82431002BC9
:100F9000F8D002E01046BDE8F8830023C4F84C31D5
:100FA000D4F85C311BB9D4F82431002BF8D00023DD
:100FB000C4F85C310122B8F1000F02D1D4F8243119
:100FC00043B16261D4F80431002BFBD00023C4F894
:100FD000043107E0E261D4F84831002BFBD0002354
:100FE000C4F84831D4F8243113B10023C4F82431B3
:100FF000D4F83C053066C0B2BDE8F8830123FFF7A2
:10100000ABBF10B5044680F8B010683000F06EFF3A
:101010000123637710BD2DE9F04100230569437773
:10102000012790F8B030C5F8883500F1680604460D
:101030002F623046C5F84465884600F069FF236991
:10104000C5F848059F60D3F850211AB9D3F8242178
:10105000002AF8D00022C3F85021304600F058FF93
:10106000236930B1D3F860211AB9D3F82421002ABA
:10107000F8D00022C3F860210122B8F1000F02D19C
:10108000D3F8241141B15A61D3F80421002AFBD0CE
:101090000022C3F8042107E0DA61D3F84821002ACE
:1010A000FBD00022C3F84821D3F8240170B10022FC
:1010B000C3F82421D3F8C404C3F8C404022805D01B
:1010C000042814BF04200320BDE8F081BDE8F081AE
:1010D0004369D3F8642170B5044682B1002201252A
:1010E00000F12006C3F864210577304600F0FEFECB
:1010F00063694022C3F83465C3F838251D6363690A
:10110000D3F86821D2B10025C3F8685104F168060C
:10111000012363772577304600F0E8FED4F8B43039
:1011200003B19847657765693046C5F8446500F0B6
:10113000EFFE6369C5F8480501225A636369D3F875
:1011400004215AB10022C3F80421227F32B1D3F81E
:101150003C05D4F8B830206603B198476369D3F8EA
:10116000242142B10022C3F82421D3F8D024C3F8AB
:10117000D02401225A6170BD0148FFF7A9BF00BF0A
:10118000200200200148FFF7A3BF00BF6401002038
:1011900007B5132314228DE80C004FF040221146AE
:1011A00004230848FFF74EFE074A08481E211F2364
:1011B0008DE80A0003231146FFF744FE03B05DF8F3
:1011C00004FB00BF2002002000300040640100202A
:1011D00000F11903C9B280F8241080F8251080F8B6
:1011E000261080F8271080F8281005309842F2D198
:1011F00070470000002910B538DB002A36DBB0F953
:101200000C408C4232DDB0F90E4094422EDD847EDB
:10121000022C09D0032C10D0012C13D10489013CDD
:10122000A41A0A4621B20DE00489013C611A4489DE
:10123000013CA21A09B212B204E04489013C641ACA
:10124000114622B202EB82021144C9B2084A545C30
:10125000084A525C013AD2B29100013C0A44E4B21D
:101260001044204403B1012380F8243010BD00BF96
:10127000330000201500002010B505220446114659
:1012800000F0D8FA2046044B40F8243B19220021F4
:1012900001F066FA204610BD9C3C0000704700003B
:1012A0002DE9F8431D4C1E4D2378DFF87890064653
:1012B0000021E85C01F07EF94FF0000819F8080001
:1012C000184F012108F1010801F074F9B8F1050F78
:1012D000F4D123780133DBB2042B237082BF0F4B90
:1012E00000221A704FF00008237803EB8303334485
:1012F000434493F8243023B1002117F8080001F08B
:1013000059F908F10108B8F1050FEDD12378012151
:10131000E85CBDE8F84301F04DB900BFE0020020F1
:10132000100000202E0000200D4B0022012104207F
:10133000C3F80425D960C3F810054FF47A70C3F8D8
:101340000825C3F84005C3F844254FF48032C3F89C
:101350000423044A4FF4806010601960704700BF96
:1013600000A0004000E100E070B51B4B1B4C186072
:101370000546661D14F8010F012101F0F1F8012165
:10138000207801F017F9B442F4D1154C661D14F819
:10139000010F012101F0E4F80021207801F00AF9A1
:1013A000A642F4D12B4605F11901002283F824202E
:1013B00083F8252083F8262083F8272083F8282027
:1013C00005339942F2D1074B002228461A70FFF7E5
:1013D000ABFF012070BD00BFDC0200202D0000200B
:1013E0000F000020E002002010B50B4CD4F8403173
:1013F00083B1D4F80433DB030CD50023C4F84031A7
:10140000064B1868FFF74CFFD4F8403503F57A73A4
:10141000C4F8403510BD00BF00A00040DC02002031
:10142000FFF7E2BF03680021DB6B184730B585B0DA
:101430000D460446FFF7F6FF0821052201238DE83B
:101440000E0020462B4600226FF0020100F061FAE8
:1014500005B030BD2DE9F84304460E461349174642
:1014600000F041FC0023E37605250123E382A382FB
:101470006FF00409A846304601F068FD00B201385B
:1014800009FB00F085420EDD25822046A4F812807B
:10149000FFF7C8FF3146204600F096FC384600F0C2
:1014A00065FF013DE7E7BDE8F88300BF8C39000028
:1014B00070B504460D46104900F015FC00260123C6
:1014C000E676E382A382284601F040FD012806D992
:1014D000294620469622BDE87040FFF7BBBF204654
:1014E000FFF7A0FF05232682638229462046BDE838
:1014F000704000F069BC00BF8C39000030B58BB083
:1015000004460D462222002101A801F029F90A22F1
:1015100001A9284601F019F901A92046FFF7C8FFE3
:101520000BB030BDFFF7EABF2DE9F04F85B01F4685
:10153000BDF93830BDF83CA015469A1A002AB8BF4C
:10154000524200927A1A002AB8BF524201920C46C7
:10155000009A01998A42814605DD3A461F461346A4
:1015600022462C461546BC4205DD2A461D4613463A
:1015700022463C4617465A1B002AC4EB0708B8BF50
:1015800052421FFA88F8039202260FFA88F292FB61
:10159000F6F64FF6FF729D42B8BF0122B6B2029234
:1015A000BC421FDC019A009B9342D9F80030C8BFAF
:1015B0002246D3F810B0C8BF29465346DCBF2A469E
:1015C00021464846D847039BF61AB3B29EB232046E
:1015D00005D5029A08EB030615442DB2B6B20134C4
:1015E00024B2DDE705B0BDE8F08F10B40468A4684C
:1015F000A4465DF8044B604730B40468BDF8085059
:101600000295246BA44630BC604730B40468BDF832
:1016100008500295646BA44630BC604770B40468FF
:10162000BDF90C50BDF8106004960395A46BA44658
:1016300070BC604770472DE9F3411C460368BDF854
:101640002080DB6805461646013C34440F4624B230
:1016500098472B68CDF8048000941C6A28463B46C6
:1016600032463946A0472B685B6A284602B0BDE87F
:10167000F04118472DE9F3411D460368BDF820806D
:10168000DB68044617460E4698478DE880012268BD
:101690006B1E3344156A20461BB23A463146A847B2
:1016A00023685B6A204602B0BDE8F04118472DE987
:1016B000F3471E460368BDF92880DB68BDF82C900F
:1016C0000C460546174698472644B4422A680BDA6A
:1016D000CDF80090D2F818A0214643463A46284655
:1016E0000134D04724B2F0E7536A284602B0BDE87F
:1016F000F047184713B5B0F90E2004680191009225
:101700000022B0F90C30A46B1146A04702B010BD06
:101710002DE9F7439942904607460E461C46BDF90F
:101720002850BDF82C9002680BD1A845C2BF434693
:10173000A8461D466B1CCDF82890C8EB0303146B1C
:101740000CE0A84513D19942C4BF0B462646CDF8FC
:101750002890C8BF1C46631C546B9B1B1BB242469F
:1017600031463846A44603B0BDE8F0436047D3682D
:1017700098473B688DE8200238461D6A424623465A
:101780003146A8473B685B6A384603B0BDE8F04382
:1017900018472DE9F3471E460368BDF82C80DB6827
:1017A000BDF9289004460D46174698472368CDF8A2
:1017B0000080D3F81CA03A46334629462046D0473D
:1017C0002368CDF8008009F1FF323A44D3F81CA019
:1017D00029463346204612B2D0472368CDF8008010
:1017E000D3F818A03A464B4629462046D0472368EE
:1017F000CDF80080711E294420469D693A464B462B
:1018000009B2A84723685B6A204602B0BDE8F047EA
:101810001847704701F00301012981760389428945
:1018200004D0032902D08381C28170478281C381A1
:101830007047000030B5018100240A4D428181814A
:10184000C2814FF6FF7101224460056084760482F4
:10185000448242760276C1828182C2760477046233
:1018600030BD00BFF83C00002DE9F04F89B09A462A
:10187000BDF94C300393BDF85030049303680292D5
:10188000DB680191BDF9489000260546984708237A
:1018900000963446079309F1070292FBF3FB009A86
:1018A000029B03991344BDF9002091429BB229DDAC
:1018B0000AEB06021BB24FF00008059206931FFACE
:1018C00088F10BB24B4518DA4A0703BF079A93FB1E
:1018D000F2F3059A64000CBFD45CE4B2230609D588
:1018E000019B069A19442B681B6909B21F462846BA
:1018F000049BB84708F10108E1E7009B013300931E
:101900005E44CCE72B685B6A284609B0BDE8F04F1F
:10191000184770B4BDF90C40BDF91050BDF8146003
:1019200005960495039470BCFFF79EBF2DE9F04F18
:1019300091B09046026A03911E46BDF8683002934A
:101940000446BDF86C909DF870709DF87450002AA4
:1019500040F0B280B0F90C308B4240F33F81B0F9D7
:101960000E30434540F33A81062313FB0713002B47
:1019700040F3348108EBC503002B40F32F81037F34
:101980001BB9AF2E84BF0136F6B223682046DB6850
:10199000984705230993002306933BB20C939DF9C6
:1019A00018309049052212FB06324FF0000A8A5C7B
:1019B0000592BAB20792BDF80C2004920499079AD6
:1019C00003FB021292B211FA83F308921BB20822AF
:1019D0000A920B93059BDA0711D5012F4FFA8AF271
:1019E00007D1012D05D123684244D3F810B0029BE2
:1019F00013E002992368019102FB058217E0029B24
:101A00004B451DD0012F4FFA8AF20BD1012D09D180
:101A100023684244D3F810B04B4612B20B992046CB
:101A2000D8470DE02368CDF8049002FB05820095AD
:101A3000D3F814B0BDF920100C9B12B22046D84741
:101A4000059B5B0805930A9B013B0AF1010A13F011
:101A5000FF035FFA8AFA0A93BCD1069B0133DBB21B
:101A60000693099B013B13F0FF03099397D1029B57
:101A70004B4500F0AC80012F23680CD1012D0AD119
:101A80000499CDF8009005319D694246082309B2BA
:101A90002046A8479BE0079ACDF8049002EB82010C
:101AA000049AED000A44114600955D6942463B46A2
:101AB00009B22046A8478AE0137A516812680D924D
:101AC000F61AF6B201EBC60331F8362004929A7882
:101AD0000792DA780A92012F5A7908929E7901D8F2
:101AE000012D07D99DF920309BB2069373B29BB2AA
:101AF000059302E000230593069323682046DB68E4
:101B000098471FFA88F34FF00009099343FA86F3C8
:101B1000CB46CA460F930A9B5FFA89F29A4256D285
:101B2000059B09994B4413FB05F30B440F999BB29A
:101B30008A180C9300265B460E92079A96423FD273
:101B40005A1CD2B25B070B9207D1049B04990D9AE1
:101B500001339BB212F801A004931AF0800F27D032
:101B6000012F11D1012D0FD19DF82020039B43FAA5
:101B700082F12368BDF93820D3F81080029B3144EC
:101B800009B22046C04713E0BDF81830029A01920E
:101B900006FA83F1039B009511FB07F119442368B2
:101BA000BDF93020D3F8148009B23B462046C04727
:101BB0004FEA4A0A01365FFA8AFAF6B20B9BBCE793
:101BC000079B9B445FFA8BFB09F10109A3E723689C
:101BD0005B6A204611B0BDE8F04F184711B0BDE870
:101BE000F08F00BF403D0000F0B5026A85B00446AA
:101BF0000B46002A2FD10A2905D10282438A427E50
:101C000003EBC20330E00D296AD0C17E457E007E21
:101C100069B1B4F91060062111FB0061B4F90C60E0
:101C2000B142C1BF2282628A02EBC5026282029087
:101C3000E08A0190A08AB4F912200090B4F9101043
:101C400003952046FFF772FE237E228A03EB4303AF
:101C500002EB430343E00A2908D100230382417EBB
:101C6000127B438A01FB0233638239E00D2937D0AE
:101C7000157AA94234D3917A994231D351685D1BC8
:101C8000EDB201EBC505A97821B3E87810B3E77E82
:101C9000667E207E8FB195F905703944B4F91070D5
:101CA00000FB0171B4F90C70B94206DD00212182FC
:101CB000127B618A06FB021262820290E08A019026
:101CC000A08A0090B4F91220B4F9101003962046AF
:101CD000FFF72CFE2979227E238A01FB023323821F
:101CE000012005B0F0BD036A19B133B9438A063348
:101CF00002E013B1438A063B438201627047000051
:101D000038B50025057329B90B4B0C4A0C48252121
:101D100000F08CFC01600B4951F82220027151F84F
:101D2000233083719DF8103051F823304371022322
:101D3000C371856038BD00BF7D4200004042000095
:101D40008B420000F442000007B5094B09490A48DC
:101D50004FF080421A6000229A6002221A710F230B
:101D600000930E220D23FFF7CBFF03B05DF804FBB9
:101D7000E402002000300240F00200202DE9F04192
:101D800006460D4601EB02080C464445A4EB050748
:101D900007D0336814F8011B1B68304698470028A9
:101DA000F3D13846BDE8F08170B505460C460846CB
:101DB00049B101F0CBF82B680246214628465B6802
:101DC000BDE87040184770BD08B5FFF7EDFF08BDCE
:101DD00003681B681847000008B50249FFF7E4FFD5
:101DE00008BD00BF8043000038B50546FFF7DCFFA3
:101DF00004462846FFF7F0FF204438BDF0B58BB00D
:101E000000238DF82430012A98BF0A220DF1230502
:101E1000B1FBF2F402FB1416F3B2092E94BF303377
:101E20003733DBB22F46214605F80139002CEFD1BC
:101E30003946FFF7B9FF0BB0F0BD10B42AB90368FB
:101E40005DF8044B1B68C9B21847D2B25DF8044B69
:101E5000FFF7D4BF38B50546FFF7EFFF0446284625
:101E6000FFF7BAFF204438BD2DE9F04107460E4682
:101E700015462AB90368C9B21B68BDE8F041184786
:101E80000A2A02D1002901DA04E0D2B2BDE8F04109
:101E9000FFF7B4BF2D21FFF79BFF2A46044671428E
:101EA0003846FFF7ABFF2044BDE8F08138B5054662
:101EB000FFF7DAFF04462846FFF78EFF204438BDBF
:101EC00010B540220446002100F04AFC00232364A0
:101ED0006364204610BD026C10B5531C446C03F0C3
:101EE0003F039C421CBF8154036410BD0023036464
:101EF00043647047436C026C93421FBFC25C013362
:101F000003F03F03436414BF10464FF0FF307047A7
:101F1000036C406C181A48BF40307047436C026C29
:101F2000934214BFC05C4FF0FF307047036C406CAD
:101F3000013303F03F031B1A584258417047000019
:101F40000649074A074B9B1A03DD043BC858D0508B
:101F5000FBDC00F013F8FEF7A5F90000C844000010
:101F600000000020D8000020FEE7FEE7FEE7FEE7C5
:101F7000FEE7FEE7FEE7FEE7FEE7FEE73A4B1A68FC
:101F80000D2A1FD01B680D2B26D0374B1B680D2B3D
:101F900009D14FF08043D3F80024D20703D56FF066
:101FA0000102C3F80024314AD2F8883043F47003A8
:101FB000C2F88830BFF34F8FBFF36F8F2C4B2D4A81
:101FC0001A6070474FF080420021C2F80C11C2F82D
:101FD0001011C2F83815D5E74FF08052264BD2F8D1
:101FE0000414C3F82015D2F80814C3F82415D2F845
:101FF0000C14C3F82815D2F81014C3F82C15D2F815
:102000001414C3F83015D2F81814C3F83415D2F8E4
:102010001C14C3F84015D2F82014C3F84415D2F8A4
:102020002414C3F84815D2F82814C3F84C15D2F874
:102030002C14C3F85015D2F83014C3F85415D2F844
:102040003414C3F86015D2F83814C3F86415D2F804
:102050003C14C3F86815D2F84014C3F86C15D2F8D4
:102060004424C3F8702590E73001001000ED00E033
:102070004C0000200090D00300C0004001207047B9
:1020800003681322DB69184770470369C3F81C15FE
:10209000D3F81C21002AFBD00022C3F81C21012008
:1020A0007047000090F85C305AB2520910B4012118
:1020B00020320F4C03F01F0301FA03F344F82230DF
:1020C00003695DF8044B0422C3F808230022596019
:1020D000D960C3F800254FF0FF32C3F80C25143047
:1020E000C3F81425C3F80825C3F81025FFF7FEBE72
:1020F00000E100E01430FFF70BBF1430FFF70EBF14
:102100001430FFF7F7BE0000026990F85E3030B57A
:10211000C2F80C3590F85D30C2F8143590F8613093
:10212000012B01BF90F85F40C2F8104590F8604065
:10213000C2F8084518BF0023B1F5966FC2F86C3598
:102140002ED9B1F5166F2ED9B1F5965F2ED9B1F50E
:10215000165F2DD9B1F5615F2CD9B1F5964F2BD90A
:10216000B1F5E14F2AD9B1F5164F29D9B1F5614F33
:1021700029D9B1F5963F29D9B1F5E13F28D9B1F573
:10218000613F28D9344B994228D9B1F5E12F28D99C
:10219000B1F5612F8CBF4FF080534FF0706322E098
:1021A0004FF49E231FE04FF41D231CE02B4B1AE03D
:1021B0002B4B18E02B4B16E02B4B14E02B4B12E073
:1021C0004FF41D030FE04FF46B030CE0284B0AE0C3
:1021D0004FF0EB7307E04FF06C7304E04FF0806357
:1021E00001E04FF0E863C2F8243500210423C2F86F
:1021F0000035C2F80811C2F81C110121116091606C
:10220000C2F8043390F85C2053B2D2B202F01F053A
:102210005C09A9406034174D002B45F8241006DAFC
:10222000154B02F00F02134460221A7606E003F108
:10223000604303F56143602283F8002390F85C302B
:1022400001215AB203F01F0301FA03F352090949AD
:1022500041F8223030BD00BF90D0030000B0130021
:102260000050270000F03A0000A04E0000C07500AA
:1022700000903A0100E100E0FCEC00E02DE9F041C3
:102280001E464FF47A73002583600E4B456004466A
:1022900040F8143B17468846FFF712FE0A4AC4F876
:1022A000108052F8263084F85D309DF8183084F89C
:1022B0005C7052F8233084F85E3084F86150204618
:1022C000BDE8F08198430000F44200000369D3F8B0
:1022D000082110B504464AB1D3F818151430C9B214
:1022E000FFF7F9FD23690022C3F8082110BD0000A3
:1022F0000148FFF7EBBF00BF0403002007B522230E
:1023000000930222212303490348FFF7B7FF03B0DC
:102310005DF804FB002000400403002008B100F039
:10232000A3BD704710B5044630B100F0C5FD90FB69
:10233000F4F303FB140010BD10BDFEE7094B196850
:10234000094B30B5D3F804050A060B0A02434FF4D3
:102350007A71A2FB014501FB0355E00B40EA4540C1
:1023600030BD00BF680300200010014038B50446AE
:1023700048B1FFF7E3FF054600F01AF8FFF7DEFF6C
:10238000401B8442F8D838BD074B0022C3F8042113
:1023900082B0D3F80431054A0193019B13680133DD
:1023A000DBB2136002B070470010014068030020E8
:1023B0007047704708B500F011F8FFF7FAFF0120E9
:1023C000FFF7D4FFFEF718FB034CFEF7EDFA002CE5
:1023D000FBD0AFF30080F8E7000000000D4BE022D7
:1023E00083F811234FF40032C3F880211A604FF0B4
:1023F000804302220121C3F81825996003F5883330
:102400000020C3F80805C3F80423C3F84423196067
:10241000704700BF00E100E0222837B500F293804A
:102420004A4B53F82030052B19D007D8032B12D074
:1024300013D8022B40F08780012215E01D2B10D00D
:1024400003D81C2B7FD105220EE01E2B0BD01F2B97
:1024500079D1082208E0022206E0032204E00422E7
:1024600002E0062200E00722394B1968082908DD3E
:102470000A2909DD0D29B5BF0C240E2402230323EC
:1024800004E00824002301E00A2401233148C0F8B5
:10249000F0350123C0F8003500200546030103F1A3
:1024A000804303F5E04301300828C3F81455C3F80E
:1024B0001055F3D1284B1868284B1B6800021B03EA
:1024C00003F4805300F4E0601843224BC3F818056E
:1024D000C3F81425C3F810250DF10602C3F82C2605
:1024E0000122C3F830261A60D3F80001194A0028E7
:1024F000FAD00023C2F8003101235360D2F804015E
:10250000144B0028FAD00022C3F8042101229A605B
:10251000D3F81421002AFBD00E4A0023C2F814314C
:10252000BDF906209A420B4AB8BFADF806308C427E
:10253000C2F80035BDF9060006D08BBF611A091B31
:10254000C840884000E0002003B030BDF4420000E5
:102550005400002000700040500000206C03002058
:10256000222821D8114B124A53F8203013F0200FA3
:1025700008BF4FF0A04203F01F03032914D8DFE87F
:1025800001F0020E060A03F5E07300210AE003F5EC
:10259000E0730C2106E003F5E073042102E003F58B
:1025A000E073032142F82310704700BFF44200009B
:1025B00000030050222813D80A4B53F820200A4B5E
:1025C00012F0200F02F01F004FF0010208BF4FF081
:1025D000A043824011B9C3F80C257047C3F8082501
:1025E000704700BFF442000000030050222811D8B9
:1025F000094B53F82000094B10F0200F08BF4FF093
:10260000A04300F01F00D3F8103523FA00F000F0CB
:102610000100704700207047F442000000030050A2
:102620000B460146184600F01FB800001FB51C46B7
:10263000094B1B680546D86812B9084B1A4600E0DA
:10264000074B02928DE80A0022462B46054900F00E
:102650002DF800F07FFD00BFB8000020824300008D
:10266000C0430000CD43000010B5054C13462CB10B
:102670000A4601460220AFF3008010BD204610BD7F
:102680000000000008B5074B044613B10021AFF36A
:102690000080054B1868836A03B19847204601F013
:1026A000BFF800BF00000000004400000EB403B5F6
:1026B000014603AB054853F8042B0068019300F072
:1026C0001BF902B05DF804EB03B07047B8000020BE
:1026D00070B50E4B0E4CE41AA41000251E46A54200
:1026E00004D056F8253098470135F8E701F09AF8FC
:1026F000084C094BE41AA41000251E46A54204D03C
:1027000056F8253098470135F8E770BDBC00002029
:10271000BC000020D0000020BC000020931E222B13
:1027200010B50C4602D90020087010BD0A2A06D147
:10273000002804DA2D230B704042012100E0002123
:10274000214400F00BFC204610BDFFF7E7BF00005E
:10275000024B0146186800F051B800BFB8000020D5
:1027600002440346934202D003F8011BFAE7704784
:1027700030B500293ED051F8042C0B1F1E49002A09
:10278000B8BF9B180A680C4612B95A600B6030BD7E
:102790009A420ED919685818824204BF10685268CC
:1027A0005A6004BF09181960236030BD994203D8EC
:1027B0000A4651680029F9D1146815199D420AD1B9
:1027C0001B682344D0188142136013D10868034466
:1027D00013604B680DE002D90C23036030BD18680C
:1027E0001C18A14204BF0C684968596004BF001955
:1027F0001860536030BD00BF7403002070B5CD1C5D
:1028000025F0030508350C2D38BF0C25002D064694
:1028100003DA0C233360002070BDA942F9D81F4BA6
:102820001C681A462146A1B10B685B1B0ED40B2B0A
:1028300003D90B60CC18CD501EE08C420DBF6368ED
:102840004B686360136018BF0C4615E00C4649687E
:10285000E9E7134C23681BB9304600F067FB2060A2
:102860002946304600F062FB431CD2D0C41C24F041
:102870000304A0420AD1256004F10B00231D20F0BF
:102880000700C31A09D05A42E25070BD211A3046DF
:1028900000F04CFB0130EED1BBE770BD74030020AB
:1028A000700300209368013B002B10B4936009DA99
:1028B0009469A34202DBCBB20A2B03D15DF8044B2F
:1028C00000F088BB1368581C10601970C8B25DF81E
:1028D000044B7047F8B506460F461446D518AC426F
:1028E00008D03A4614F8011B3046FFF7DBFF431CC3
:1028F000F5D100E00020F8BD2DE9F04F9DB00C4669
:1029000017460393064618B183690BB900F01CFD06
:102910007F4B9C4201D1746808E07E4B9C4201D100
:10292000B46803E07C4B9C4208BFF468A389180795
:102930000CD5236953B10023099320238DF8293046
:1029400030238DF82A30DFF8D4B144E021463046F8
:1029500000F094FB0028EED04FF0FF30D5E0039A52
:10296000111D12680391002A80F28C80524243F0BC
:1029700002000792049098F800302E2B00F084801B
:10298000032298F80010654800F0BAFD48B14023D2
:10299000CBEB000003FA00F0049B1843049008F10D
:1029A000010898F800105E488DF82810062208F1FA
:1029B000010700F0A5FD002800F09580594B002B81
:1029C00040F08880039B073323F007030833039309
:1029D000099B53440993B846454615F8013B1BB97A
:1029E000B8EB07090FD003E0252BF9D0A846F3E791
:1029F0004B463A4621463046FFF76CFF01307FD008
:102A0000099B4B44099398F80030002B78D00023A1
:102A10004FF0FF3204930793059206938DF85330DD
:102A20001A930127052229783F4800F069FD05F136
:102A30000108049B38B13C4A801A07FA00F0184399
:102A400004904546EEE7D90644BF20228DF8532076
:102A50001A0744BF2B228DF853202A782A2A3FF4E4
:102A60007EAF079A00210A20A846013598F8003069
:102A7000303B092B03D800FB02320121F4E7002987
:102A80003FF479AF079276E798F801302A2B0BD103
:102A9000039B1A1D1B680392002BB8BF4FF0FF3336
:102AA00008F1020805936BE70023059308F1010084
:102AB00019460A258046013098F80020303A092A44
:102AC00003D805FB01210123F4E7002B3FF458AFA5
:102AD000059155E703AB00932246144B04A93046F9
:102AE000AFF3008007E003AB009322460F4B04A92D
:102AF000304600F093F8B0F1FF3F82467FF468AFB4
:102B0000A3895B063FF528AF09981DB0BDE8F08F9B
:102B10005C4400007C4400009C4400000A44000027
:102B20000E4400000000000004440000D52800000E
:102B30002DE9F04791461F460A698B68DDF8208031
:102B40009342B8BF1346C9F8003091F843200646B7
:102B50000C4612B10133C9F800302368990642BF10
:102B6000D9F800300233C9F80030256815F00605A1
:102B700010D104F1190A07E00123524639463046C4
:102B8000C04701301AD00135E368D9F800209B1AFC
:102B90009D42F1DB94F843302268003318BF0123D3
:102BA00092060FD5E1185A1C302081F843002244C8
:102BB00094F8451082F84310023303E04FF0FF30E1
:102BC000BDE8F08704F1430239463046C047013082
:102BD000F4D02268D9F80050E36802F00602042A13
:102BE00008BF5D1B2269A3680CBF25EAE5750025B7
:102BF0009342C4BF9B1AED184FF000091A344D459B
:102C000009D00123224639463046C0470130D5D08D
:102C100009F10109F3E70020BDE8F0872DE9F04351
:102C200017460A7E85B06E2A984606460C460C9BCF
:102C300001F1430E00F0AE8011D8632A22D009D8EA
:102C4000002A00F0BB80582A40F0CA8081F8452055
:102C5000834955E0642A1ED0692A1CD0C0E0732A3B
:102C600000F0B08009D86F2A2ED0702A40F0B880CA
:102C70000A6842F020020A603EE0752A24D0782AD1
:102C80003AD0ADE01A6801F14205111D19601368D0
:102C900084F84230A8E021681A6811F0800F02D051
:102CA000111D196008E011F0400F02F104011960D4
:102CB00002D0B2F9003000E01368002B3CDA2D227C
:102CC0005B4284F8432037E021681A6811F0800FD6
:102CD00002D0111D196007E011F0400F02F104014C
:102CE000196001D0138800E01368227E5C496F2AC6
:102CF00014BF0A2208221BE078225A4984F8452092
:102D00002268186812F0800F00F104051D6003D1DD
:102D1000550601D5038800E00368D00744BF42F0A0
:102D2000200222601BB9226822F0200222601022B9
:102D3000002084F8430001E049490A226568A56043
:102D4000002D08DB206820F0040020602BB9002D46
:102D50007DD175460CE0002B79D07546B3FBF2F0BF
:102D600002FB1033CB5C05F8013D03460028F5D18A
:102D7000082A0BD12368DA0708D5236962689A42CA
:102D8000DEBF302305F8013C05F1FF35C5EB0E032E
:102D900023612EE008681A68496910F0800F03D09B
:102DA000101D1860136808E010F0400F02F10400D5
:102DB0001860136801D0198000E0196000232361B6
:102DC000754616E01A68111D1960156862680021C1
:102DD000284600F095FB08B1401B6060636804E082
:102DE00004F1420584F8422001232361002384F882
:102DF0004330CDF800803B4603AA21463046FFF71A
:102E000097FE013002D14FF0FF3026E023692A46B9
:102E100039463046C0470130F5D023689B0710D5AE
:102E2000002504F1190907E001234A4639463046D6
:102E3000C0470130E7D00135E368039A9B1A9D42F1
:102E4000F2DBE068039B9842B8BF184605E00B78B8
:102E500084F8423004F142058AE705B0BDE8F0830A
:102E6000154400002644000038B5124B1C68A36BC3
:102E70000546D3B91820FFF76BFC43F20E33A0636D
:102E800003804AF6CD33438041F2342383804EF2EF
:102E90006D63C3804DF6EC630381052343810B23EF
:102EA000838101220023C0E90423A36B00221D615A
:102EB0005A6138BDB8000020194B10B51C68A36BCF
:102EC000D3B91820FFF744FC43F20E33A06303800C
:102ED0004AF6CD33438041F2342383804EF26D6352
:102EE000C3804DF6EC630381052343810B2383816B
:102EF00001220023C0E90423A16B0A4C0B69486935
:102F0000094A5C4302FB0040A3FB02230132034455
:102F100043F10003C1E9042323F0004010BD00BFCA
:102F2000B80000202DF451582D7F954C38B5064C33
:102F3000002305460846236000F05CFC431C02D1D8
:102F4000236803B12B6038BD7C030020034613F8CF
:102F5000012B002AFBD1181A01387047F0B51C4C20
:102F60008BB003460F466D4604F1200E2068616861
:102F70002E4603C6083474453546F7D121793171A0
:102F8000911E2068306022294FF0000001D938706E
:102F90001CE07D1EB3FBF2F40AAE02FB1433334493
:102FA000411C13F8283C05F8013F23460CB10846A4
:102FB000F0E77C543A18C11A8B4206DAF95C1478AF
:102FC000FC5402F801190133F5E738460BB0F0BDA7
:102FD00037440000F8B50F461446064618B1836919
:102FE0000BB900F0B1F9224B9C4201D1746808E0A2
:102FF000204B9C4201D1B46803E01F4B9C4208BFA8
:10300000F468A369A360A3891A0709D523693BB1B2
:1030100023682069181A63699842FDB20FDB08E043
:103020002146304600F02AF80028F1D04FF0FF305A
:10303000F8BD2146304600F01DF90028F6D1A368FE
:10304000013BA36023685A1C22601F706269431C05
:10305000934204D0A389DB0707D50A2D05D1214669
:10306000304600F007F90028E0D12846F8BD00BF3F
:103070005C4400007C4400009C440000314B70B56F
:103080001D6806460C4625B1AB6913B9284600F009
:103090005BF92D4B9C4201D16C6808E02B4B9C42A4
:1030A00001D1AC6803E02A4B9C4208BFEC68A389BD
:1030B0009AB211071DD4D50602D40922326038E035
:1030C000500712D5616B41B104F14403994202D01B
:1030D0003046FFF74DFB00236363A38923F02403ED
:1030E000A3810023636023692360A38943F008035D
:1030F000A38123694BB9A38903F42073B3F5007F3F
:1031000003D02146304600F0A9F9A38913F001024B
:1031100005D00022A26062695242A26103E09907D1
:1031200058BF6269A26022694AB903F0800080B288
:1031300030B143F04003A3814FF0FF3070BD002059
:1031400070BD00BFB80000205C4400007C4400005B
:103150009C44000008B5062000F04CFA012000F065
:103160005FFB00008A892DE9F041054610070C46F7
:1031700059D44B68002B02DC0B6C002B17DDE66A80
:10318000AEB102F48052002392B22F682B600AB1D4
:10319000606D15E0216A01232846B047411C0FD11C
:1031A0002B686BB11D2B01D0162B03D12F60002093
:1031B000BDE8F081A38943F04003A381BDE8F0811D
:1031C000A3895A0705D56368C01A636B0BB1236CDA
:1031D000C01A00230246E66A216A2846B047431C0B
:1031E000A38906D129681D293AD8214ACA40D607A1
:1031F00036D500226260D9042269226004D5421CBF
:1032000001D12B6803B96065616B2F600029CED0B6
:1032100004F14403994202D02846FFF7A9FA00209E
:103220006063BDE8F0810F69002FC0D093070E687E
:1032300008BF4B690F6018BF0023C7EB06088B60FF
:1032400002E00744C0EB0808B8F1000FAFDD4346C9
:103250003A46216AA66A2846B0470028F1DCA389CD
:1032600043F04003A3814FF0FF30BDE8F08100BF81
:103270000100402038B50B6905460C46DBB118B19A
:1032800083690BB900F060F80C4B9C4201D16C686B
:1032900008E00B4B9C4201D1AC6803E0094B9C4217
:1032A00008BFEC68B4F90C302BB121462846BDE8C4
:1032B0003840FFF757BF002038BD00BF5C44000016
:1032C0007C4400009C440000014900F0A9B800BF04
:1032D00075320000002310B504460360436083602C
:1032E00081814366C281036143618361194608227B
:1032F0005C30FFF735FA054B6362054BA362054B63
:10330000E362054B2462236310BD00BF2D3600002D
:103310004F36000087360000AB36000070B56823DA
:103320004D1E5D430E4605F17401FFF767FA044632
:1033300040B1002180E842000C30A06005F1680235
:10334000FFF70EFA204670BD836910B5044633BB03
:103350008364C3640365124B124A1B6882629842FD
:1033600004BF0123836100F01FF86060204600F075
:103370001BF8A060204600F017F80022E06004214E
:103380006068FFF7A7FF01220921A068FFF7A2FFED
:1033900002221221E068FFF79DFF0123A36110BD07
:1033A00000440000C9320000F8B51C4B1E68B36928
:1033B000074613B93046FFF7C7FF4836B46873684D
:1033C000013B04D4B4F90C507DB16834F8E733689C
:1033D0000BB13668F2E704213846FFF79FFF3060F3
:1033E0000028F6D10C233B60F8BD4FF6FF73E38154
:1033F0000123A38165662560A5606560256165611F
:10340000A5610822294604F15C00FFF7A9F965636C
:10341000A563A564E5642046F8BD00BF0044000034
:103420002DE9F8438046894600F14804002694B10E
:10343000A5686768013F0CD4AB89012B07D9B5F9A2
:103440000E30013303D029464046C847064368354D
:10345000F0E72468EBE73046BDE8F883F0B58B89E8
:103460009D0791B006460C4626D4B1F90E100029EE
:1034700009DAA38913F0800F4FF0000514BF40272D
:103480004FF480670DE001AA00F036F90028F0DB68
:10349000029D05F47045A5F500514D424D414FF494
:1034A000806739463046FFF7A9F960B9A3899A05C4
:1034B0001DD443F00203A38104F147032360236179
:1034C0000123636113E00B4BB362A389206043F0D7
:1034D0008003A381206167614DB1B4F90E103046BD
:1034E00000F01CF918B1A38943F00103A38111B0C6
:1034F000F0BD00BFC9320000000000000000000065
:1035000001F0FF01102A2BDB10F0070F08D010F894
:10351000013B013A8B422DD010F0070F42B3F6D198
:10352000F0B441EA012141EA014122F007047FF0B1
:1035300000070023F0E80256083C85EA010586EA08
:10354000010685FA47F5A3FA87F586FA47F6A5FA44
:1035500087F68EB9EED1F0BC01F0FF0102F0070250
:1035600032B110F8013B013A83EA010313B1F8D1FB
:103570000020704701387047002D06BF35460338DC
:10358000073815F0010F07D1013015F4807F02BF15
:10359000013015F4C03F0130F0BC0138704700BF66
:1035A0001F2938B504460D4604D9162303604FF091
:1035B000FF3038BD426C12B152F821304BB9204671
:1035C00000F032F82A4601462046BDE8384000F0B7
:1035D00019B8012B0CD0591C03D11623036001200C
:1035E00038BD0024284642F825409847204638BD7B
:1035F000002038BD024B01461868FFF7D1BF00BF5D
:10360000B800002038B5074C00230546084611468F
:10361000236000F0D7F8431C02D1236803B12B606C
:1036200038BD00BF7C03002000F0BCB810B50C46CC
:10363000B1F90E1000F094F80028ABBF636DA389B8
:103640001B1823F48053ACBF6365A38110BD2DE923
:10365000F0411F468B89DB0505460C46164605D50D
:1036600002230022B1F90E1000F068F8A389B4F922
:103670000E1023F48053A38132463B462846BDE812
:10368000F04100F017B810B50C46B1F90E1000F07B
:1036900055F8431CA38915BF606523F4805343F498
:1036A0008053A38118BFA38110BDB1F90E1000F0A3
:1036B00013B8000038B5074C0546084611460022ED
:1036C00022601A4600F0A4F8431C02D1236803B11B
:1036D0002B6038BD7C03002038B5064C002305461E
:1036E0000846236000F04EF8431C02D1236803B162
:1036F0002B6038BD7C03002038B5074C00230546FD
:1037000008461146236000F045F8431C02D12368A7
:1037100003B12B6038BD00BF7C03002038B5064CD8
:10372000002305460846236000F044F8431C02D1FC
:10373000236803B12B6038BD7C03002038B5074CEB
:10374000054608461146002222601A4600F042F85B
:10375000431C02D1236803B12B6038BD7C030020D9
:1037600038B5074C054608461146002222601A4625
:1037700000F038F8431C02D1236803B12B6038BD38
:103780007C030020024B58221A604FF0FF30704734
:103790007C030020024B58221A604FF0FF30704724
:1037A0007C030020024B58221A604FF0FF30704714
:1037B0007C030020024B58221A600020704700BF93
:1037C0007C030020024B58221A604FF0FF307047F4
:1037D0007C030020024B58221A604FF0FF307047E4
:1037E0007C030020024B58221A604FF0FF307047D4
:1037F0007C030020044A05491368002B08BF0B46D0
:103800001844106018467047780300208003002099
:10381000024B58221A604FF0FF3070477C030020A3
:10382000FEE700BFF8B500BFF8BC08BC9E46704775
:10383000F8B500BFF8BC08BC9E46704746696E618B
:103840006C2053636F72653A200046696E616C208C
:1038500047616D6520737065656420286C6F7765BE
:1038600072206973206661737465722C2031303068
:103870002069732066617374657374293A20004E61
:1038800065772067616D652E00596F752077696EC9
:103890002100596F75206C6F7374210053636F7230
:1038A000653A0057656C6B6F6D2062696A204372E0
:1038B000617070792042697264210000000000008C
:1038C00000000000130E0000D70D00000D0E0000D8
:1038D000370E00003D0E00000B0E000000E8B4BEE5
:1038E000FA79E48542DBD6C06A409580AA805D0003
:1038F00060E080254876DC7540C54EC51CB792F364
:103900001C73DEE548F7DEF79CA0462A22E3808898
:10391000A8E50457C657DAD75C7246D6DCF3CEF377
:10392000C873D6B7DAE92E24D4B75A924EBFDABF9D
:10393000FA56D4D74856F6D7EA711CE924B6D6B65B
:10394000A4B7FAB55AB524E54EF24E8880E49E54E9
:10395000E090CEF09ADC72302ED677302BA477949C
:103960009ADAB8209A80976AC92EFFD0D6D056A08E
:10397000D6E876B2724079E05D26B6B0B7A0BFF067
:10398000A950B594EF706A26D8C8AC78DC3800002E
:103990009C39000020007E000600000000000101AC
:1039A0000200FB00010001050200FB00020003020F
:1039B0000400FB00030003050400FB0005000305F1
:1039C0000400FB00070003050400FB0009000305D9
:1039D0000400FB000B0001020200FB000C000205CA
:1039E0000300FB000E0002050300FB0010000303B0
:1039F0000400FB00120003030400FC001400020298
:103A00000300FE00150003010400FD001600010183
:103A10000200FF00170003050400FB001900030566
:103A20000400FB001B0002050300FB001D00030552
:103A30000400FB001F0003050400FB002100030538
:103A40000400FB00230003050400FB002500030520
:103A50000400FB00270003050400FB002900030508
:103A60000400FB002B0003050400FB002D000103F4
:103A70000200FC002E0002040300FC002F000305DE
:103A80000400FB00310003030400FC0033000305C5
:103A90000400FB00350003050400FB0037000305AC
:103AA0000400FB00390003050400FB003B00030594
:103AB0000400FB003D0003050400FB003F0003057C
:103AC0000400FB00410003050400FB004300030564
:103AD0000400FB00450003050400FB00470003054C
:103AE0000400FB00490003050400FB004B00030534
:103AF0000400FB004D0003050400FB004F0003051C
:103B00000400FB00510003050400FB005300030503
:103B10000400FB00550003050400FB0057000305EB
:103B20000400FB00590003050400FB005B000305D3
:103B30000400FB005D0003050400FB005F000305BB
:103B40000400FB00610003050400FB0063000305A3
:103B50000400FB00650003050400FB00670003058B
:103B60000400FB00690003050400FB006B00030573
:103B70000400FB006D0003050400FB006F0003035D
:103B80000400FC00710003050400FB007300030245
:103B90000400FB00740003010400FF007500020232
:103BA0000300FB00760003040400FC00780003051A
:103BB0000400FB007A0003040400FC007C00030501
:103BC0000400FB007E0003040400FC0080000305E9
:103BD0000400FB00820003050400FC0084000305D0
:103BE0000400FB00860001050200FB0087000306BD
:103BF0000400FB008A0003050400FB008C000305A1
:103C00000400FB008E0003040400FC009000030489
:103C10000400FC00920003040400FC00940003056F
:103C20000400FC00960003050400FC009800030457
:103C30000400FC009A0003040400FC009C0003053F
:103C40000400FB009E0003040400FC00A000030429
:103C50000400FC00A20003040400FC00A400030410
:103C60000400FC00A60003050400FC00A8000304F7
:103C70000400FC00AA0003050400FB00AC000105E1
:103C80000200FB00AD0003050400FB00AF000302CF
:103C90000400FB000000000000000000E91B000021
:103CA0007D1D0000F511000035160000EB15000029
:103CB0001D160000F91500000B1600002915000064
:103CC0003516000015180000131800003716000004
:103CD00075160000AF160000D1110000111700008A
:103CE00093170000110A040A1100010214080000D1
:103CF0000000000000000000E91B00007D1D000026
:103D00003B23000035160000EB1500001D160000D7
:103D1000F91500000B1600002915000035160000EB
:103D20001518000013180000371600007516000063
:103D3000AF160000F51600001117000093170000E1
:103D400000000000003E5B4F5B3E3E6B4F6B3E1C35
:103D50003E7C3E1C183C7E3C181C577D571C1C5E4C
:103D60007F5E1C00183C1800FFE7C3E7FF00182423
:103D70001800FFE7DBE7FF30483A060E26297929CD
:103D800026407F050507407F05253F5A3CE73C5A02
:103D90007F3E1C1C08081C1C3E7F14227F22145FDF
:103DA0005F005F5F06097F017F006689956A60603A
:103DB00060606094A2FFA29408047E040810207E34
:103DC000201008082A1C08081C2A08081E101010B9
:103DD000100C1E0C1E0C30383E3830060E3E0E06FF
:103DE000000000000000005F000000070007001452
:103DF0007F147F14242A7F2A122313086462364911
:103E00005620500008070300001C224100004122F8
:103E10001C002A1C7F1C2A08083E080800807030FD
:103E2000000808080808000060600020100804026C
:103E30003E5149453E00427F400072494949462172
:103E400041494D331814127F1027454545393C4AE6
:103E500049493141211109073649494936464949FD
:103E6000291E000014000000403400000008142245
:103E700041141414141400412214080201590906B3
:103E80003E415D594E7C1211127C7F494949363EB4
:103E9000414141227F4141413E7F494949417F099A
:103EA0000909013E414151737F0808087F00417FA5
:103EB00041002040413F017F081422417F404040A3
:103EC000407F021C027F7F0408107F3E4141413E3B
:103ED0007F090909063E4151215E7F0919294626BD
:103EE0004949493203017F01033F4040403F1F20C1
:103EF00040201F3F4038403F631408146303047898
:103F000004036159494D43007F41414102040810B7
:103F100020004141417F04020102044040404040F2
:103F2000000307080020545478407F284444383860
:103F300044444428384444287F38545454180008D2
:103F40007E090218A4A49C787F0804047800447DAC
:103F500040002040403D007F1028440000417F4049
:103F6000007C047804787C0804047838444444389D
:103F7000FC1824241818242418FC7C08040408487D
:103F80005454542404043F44243C4040207C1C20CE
:103F900040201C3C4030403C44281028444C909029
:103FA000907C4464544C4400083641000000770083
:103FB00000004136080002010204023C2623263C90
:103FC0001EA1A161123A4040207A3854545559211B
:103FD0005555794122545478422155547840205403
:103FE0005579400C1E527212395555555939545451
:103FF000545939555454580000457C410002457DC0
:10400000420001457C407D1211127DF0282528F0E8
:104010007C545545002054547C547C0A097F493215
:10402000494949323A4444443A324A4848303A418C
:1040300041217A3A42402078009DA0A07D3D424235
:10404000423D3D4040403D3C24FF2424487E4943BE
:10405000662B2FFC2F2BFF0929F620C0887E090331
:1040600020545479410000447D413048484A323858
:104070004040227A007A0A0A727D0D19317D262984
:10408000292F28262929292630484D40203808087C
:10409000080808080808382F10C8ACBA2F102834B0
:1040A000FA00007B000008142A142222142A1408A3
:1040B0005500550055AA55AA55AAFF55FF55FF00B2
:1040C0000000FF00101010FF00141414FF00101067
:1040D000FF00FF1010F010F0141414FC001414F77B
:1040E00000FF0000FF00FF1414F404FC1414171068
:1040F0001F10101F101F1414141F00101010F000B8
:104100000000001F101010101F10101010F01000F1
:104110000000FF101010101010101010FF10000001
:1041200000FF140000FF00FF00001F10170000FC3C
:1041300004F414141710171414F404F40000FF000E
:10414000F714141414141414F700F7141414171497
:1041500010101F101F141414F4141010F010F0009D
:10416000001F101F0000001F14000000FC140000BE
:10417000F010F01010FF10FF141414FF14101010A2
:104180001F00000000F010FFFFFFFFFFF0F0F0F055
:10419000F0FFFFFF0000000000FFFF0F0F0F0F0FE9
:1041A0003844443844FC4A4A4A347E020206060235
:1041B0007E027E0263554941633844443C04407E9C
:1041C000201E2006027E020299A5E7A5991C2A4915
:1041D0002A1C4C7201724C304A4D4D3030487848A0
:1041E00030BC625A463D3E494949007E0101017E8C
:1041F0002A2A2A2A2A44445F444440514A444040DF
:10420000444A51400000FF0103E080FF000008081D
:104210006B6B083612362436060F090F060000189D
:10422000180000001010003040FF0101001F0101C4
:104230001E00191D1712003C3C3C3C000000000011
:10424000535049436C6173733A3A535049436C611C
:104250007373284E52465F5350495F547970652AF4
:104260002C2075696E74385F742C2075696E7438F3
:104270005F742C2075696E74385F742900705F73E9
:10428000706920213D204E554C4C00433A5C5573DB
:104290006572735C676E65696A5C417070446174D5
:1042A000615C4C6F63616C5C41726475696E6F3107
:1042B000355C7061636B616765735C73616E6465C7
:1042C00065706D69737472795C686172647761722C
:1042D000655C6E5246355C302E372E305C6C696200
:1042E0007261726965735C5350495C5350492E6327
:1042F00070700000020000000300000004000000D5
:104300001F0000001C0000000E000000250000003F
:104310000B0000000A000000090000001E00000061
:10432000170000000C000000110000000100000058
:104330000D00000022000000FFFFFFFFFFFFFFFF56
:104340001A00000020000000150000001600000008
:104350000F000000180000001300000024000000FF
:104360000000000014000000050000001000000024
:1043700008000000190000002800000006000000EE
:104380000D0A006E616E00696E66006F7666000051
:1043900000000000000000008B2000007D1D0000D8
:1043A000F520000001210000FB2000008920000012
:1043B0008120000009210000A52000007D200000D0
:1043C0002C2066756E6374696F6E3A20006173739A
:1043D000657274696F6E2022257322206661696C94
:1043E00065643A2066696C6520222573222C206C56
:1043F000696E65202564257325730A00430000005B
:1044000058000020232D302B2000686C4C0065667E
:104410006745464700303132333435363738394115
:10442000424344454600303132333435363738392B
:104430006162636465660030313233343536373853
:10444000396162636465666768696A6B6C6D6E6F1B
:10445000707172737475767778797A000000000055
:10446000000000000000000000000000000000004C
:10447000000000000000000000000000000000003C
:10448000000000000000000000000000000000002C
:10449000000000000000000000000000000000001C
:1044A000000000000000000000000000000000000C
:1044B00000000000000000000000000000000000FC
:0844C000E4BDFF7F01000000D4
:1044C800000000005802000002010000E80300009C
:1044D800151617181901010101010202020202034F
:1044E8000303030304040404040505050505040780
:1044F80003060A010203040501020304050102037D
:104508000405010203040501020304050090D00319
:10451800010000000A000000000000005C440000E8
:104528007C4400009C4400000000000000000000E3
:104538000000000000000000FC4300000000000034
:104548000000000000000000000000000000000063
:104558000000000000000000000000000000000053
:104568000000000000000000000000000000000043
:104578000000000000000000580000206D0200004C
:10458800C509000091110000491D0000FD2200002E
:084598004502000000000000D4
:0400000300001F4199
:00000001FF
