:1000000000000220AD030000D5030000D70300006C
:10001000D9030000DB030000DD0300000000000046
:10002000000000000000000000000000DF030000EE
:10003000E103000000000000E3030000E50300000E
:10004000E7030000E7030000E7030000E703000008
:10005000E7030000E7030000E7030000E7030000F8
:10006000E7030000E7030000E7030000E7030000E8
:10007000E7030000E7030000E7030000E7030000D8
:10008000E703000035050000E7030000E703000078
:10009000E7030000E7030000E7030000E7030000B8
:1000A000E7030000E7030000E7030000E7030000A8
:1000B000E7030000E703000000000000000000006C
:1000C000E7030000E7030000E7030000E703000088
:1000D000E7030000E7030000E7030000E703000078
:1000E000E703000000000000000000000000000026
:1000F00000000000E703000000000000E70300002C
:1001000000000000000000000000000000000000EF
:1001100000000000000000000000000000000000DF
:1001200000000000000000000000000000000000CF
:1001300000000000000000000000000000000000BF
:1001400000000000000000000000000000000000AF
:10015000000000000000000000000000000000009F
:10016000000000000000000000000000000000008F
:10017000000000000000000000000000000000007F
:10018000000000000000000000000000000000006F
:10019000000000000000000000000000000000005F
:1001A000000000000000000000000000000000004F
:1001B000000000000000000000000000000000003F
:1001C000000000000000000000000000000000002F
:1001D000000000000000000000000000000000001F
:1001E000000000000000000000000000000000000F
:1001F00000000000000000000000000000000000FF
:10020000044B05481B1A062B02D9044B03B11847AF
:10021000704700BF7700002074000020000000003D
:1002200005490648091A891001EBD171491002D01D
:10023000034B03B11847704774000020740000207E
:100240000000000010B5064C237843B9FFF7D8FF33
:10025000044B13B10448AFF300800123237010BD99
:1002600074000020000000009807000008B5084B4B
:100270001BB108490848AFF300800848036813B968
:10028000BDE80840CCE7064B002BF9D09847F7E7CC
:100290000000000078000020980700007000002097
:1002A00000000000154B002B08BF134B9D46A3F523
:1002B000803A00218B460F461348144A121A00F068
:1002C00001FA0F4B002B00D098470E4B002B00D0AB
:1002D00098470020002104000D000D48002802D09E
:1002E0000C48AFF3008000F0C7F92000290000F0AF
:1002F00037F900F0ADF900BF00000800000002204F
:1003000000000000000000007400002094000020A5
:10031000000000000000000038B50A4D002455F828
:1003200024000121013400F04DF9052CF7D1012101
:10033000042000F047F900210420BDE8384000F017
:100340006BB900BFF00600002DE9F843DFF85490C8
:10035000DFF85480002459F82450124F124E012126
:10036000284600F059F9D8F8000000F0D5F801341B
:100370000021284600F050F9052CECD1042457F850
:1003800024500121284600F047F9306800F0C4F8F5
:100390000021284600F040F914F1FF34EFD2BDE807
:1003A000F88300BFF0060000000000200649074A5D
:1003B000074B9B1A03DD043BC858D050FBDC00F010
:1003C00013F8FFF76FFF0000A407000000000020F3
:1003D00074000020FEE7FEE7FEE7FEE7FEE7FEE72B
:1003E000FEE7FEE7FEE7FEE73A4B1A680D2A1FD04C
:1003F0001B680D2B26D0374B1B680D2B09D14FF0F6
:100400008043D3F80024D20703D56FF00102C3F86C
:100410000024314AD2F8883043F47003C2F888309F
:10042000BFF34F8FBFF36F8F2C4B2D4A1A6070476D
:100430004FF080420021C2F80C11C2F81011C2F82E
:100440003815D5E74FF08052264BD2F80414C3F884
:100450002015D2F80814C3F82415D2F80C14C3F8E8
:100460002815D2F81014C3F82C15D2F81414C3F8B8
:100470003015D2F81814C3F83415D2F81C14C3F888
:100480004015D2F82014C3F84415D2F82414C3F848
:100490004815D2F82814C3F84C15D2F82C14C3F818
:1004A0005015D2F83014C3F85415D2F83414C3F8E8
:1004B0006015D2F83814C3F86415D2F83C14C3F8A8
:1004C0006815D2F84014C3F86C15D2F84424C3F868
:1004D000702590E73001001000ED00E004000020DE
:1004E0000090D00300C00040094B1968094B30B59B
:1004F000D3F804050A060B0A02434FF47A71A2FBF3
:10050000014501FB0355E00B40EA454030BD00BF0B
:10051000900000200010014038B5044648B1FFF7B4
:10052000E3FF054600F01AF8FFF7DEFF401B8442A8
:10053000F8D838BD074B0022C3F8042182B0D3F8A5
:100540000431054A0193019B13680133DBB2136048
:1005500002B07047001001409000002070477047C3
:1005600008B500F011F8FFF7FAFF0120FFF7D4FFFC
:10057000FFF7D2FE034CFFF7E7FE002CFBD0AFF3F2
:100580000080F8E7000000000D4BE02283F8112303
:100590004FF40032C3F880211A604FF080430222EA
:1005A0000121C3F81825996003F588330020C3F8AA
:1005B0000805C3F80423C3F844231960704700BF3B
:1005C00000E100E0222821D8114B124A53F82030D4
:1005D00013F0200F08BF4FF0A04203F01F030329C0
:1005E00014D8DFE801F0020E060A03F5E0730021DB
:1005F0000AE003F5E0730C2106E003F5E073042143
:1006000002E003F5E073032142F82310704700BFB6
:100610000407000000030050222813D80A4B53F8A7
:1006200020200A4B12F0200F02F01F004FF00102B1
:1006300008BF4FF0A043824011B9C3F80C257047A2
:10064000C3F80825704700BF0407000000030050EE
:1006500008B5074B044613B10021AFF30080054BEA
:100660001868836A03B19847204600F033F800BF4A
:10067000000000009407000070B50E4B0E4CE41A09
:10068000A41000251E46A54204D056F825309847F0
:100690000135F8E700F020F8084C094BE41AA410E3
:1006A00000251E46A54204D056F82530984701354E
:1006B000F8E770BD68000020680000206C00002092
:1006C0006800002002440346934202D003F8011B55
:1006D000FAE77047FEE700BFF8B500BFF8BC08BCFA
:1006E0009E467047F8B500BFF8BC08BC9E467047F0
:1006F00015000000160000001700000018000000A0
:1007000019000000020000000300000004000000C7
:100710001F0000001C0000000E000000250000006B
:100720000B0000000A000000090000001E0000008D
:10073000170000000C000000110000000100000084
:100740000D00000022000000FFFFFFFFFFFFFFFF82
:100750001A00000020000000150000001600000034
:100760000F0000001800000013000000240000002B
:100770000000000014000000050000001000000050
:10078000080000001900000028000000060000001A
:0C079000430000000800002000000000F2
:08079C0008FBFF7F01000000D3
:1007A400640000000090D00300000000000000007E
:1007B4000000000000000000000000000000000035
:1007C400000000000000000090070000000000008E
:1007D4000000000000000000000000000000000015
:1007E4000000000000000000000000000000000005
:1007F40000000000000000000000000000000000F5
:1008040000000000000000006D020000450200002E
:0408140000000000E0
:04000003000003AD49
:00000001FF
